{
  "_format": "hh-sol-artifact-1",
  "contractName": "Deployer",
  "sourceName": "contracts/Deployer.sol",
  "abi": [
    {
      "anonymous": false,
      "inputs": [
        {
          "indexed": true,
          "internalType": "address",
          "name": "addr",
          "type": "address"
        }
      ],
      "name": "Deployed",
      "type": "event"
    },
    {
      "inputs": [
        {
          "internalType": "bytes",
          "name": "bytecode",
          "type": "bytes"
        }
      ],
      "name": "init",
      "outputs": [],
      "stateMutability": "nonpayable",
      "type": "function"
    }
  ],
  "bytecode": "0x608060405234801561001057600080fd5b50610262806100206000396000f3fe608060405234801561001057600080fd5b506004361061002b5760003560e01c80634ddf47d414610030575b600080fd5b61004361003e36600461017b565b610045565b005b80516100985760405162461bcd60e51b815260206004820152600e60248201527f454d5054595f42595445434f444500000000000000000000000000000000000060448201526064015b60405180910390fd5b60008151602083016000f0905073ffffffffffffffffffffffffffffffffffffffff81166101085760405162461bcd60e51b815260206004820152600d60248201527f4641494c45445f4445504c4f5900000000000000000000000000000000000000604482015260640161008f565b60405173ffffffffffffffffffffffffffffffffffffffff8216907ff40fcec21964ffb566044d083b4073f29f7f7929110ea19e1b3ebe375d89055e90600090a233ff5b7f4e487b7100000000000000000000000000000000000000000000000000000000600052604160045260246000fd5b60006020828403121561018d57600080fd5b813567ffffffffffffffff808211156101a557600080fd5b818401915084601f8301126101b957600080fd5b8135818111156101cb576101cb61014c565b604051601f8201601f19908116603f011681019083821181831017156101f3576101f361014c565b8160405282815287602084870101111561020c57600080fd5b82602086016020830137600092810160200192909252509594505050505056fea264697066735822122079188f1a23ddb32dc2bd82874d172df32de56d52f42b091c4190a1dce04ab81764736f6c63430008090033",
  "linkReferences": {},
  "deployedLinkReferences": {}
}