{
  "_format": "hh-sol-artifact-1",
  "contractName": "RemoteAddressValidator",
  "sourceName": "contracts/RemoteAddressValidator.sol",
  "abi": [
    {
      "inputs": [
        {
          "internalType": "address",
          "name": "tokenLinkerAddress_",
          "type": "address"
        },
        {
          "internalType": "string[]",
          "name": "trustedChainNames",
          "type": "string[]"
        },
        {
          "internalType": "string[]",
          "name": "trustedAddresses",
          "type": "string[]"
        }
      ],
      "stateMutability": "nonpayable",
      "type": "constructor"
    },
    {
      "inputs": [],
      "name": "InvalidCodeHash",
      "type": "error"
    },
    {
      "inputs": [],
      "name": "InvalidImplementation",
      "type": "error"
    },
    {
      "inputs": [],
      "name": "InvalidOwner",
      "type": "error"
    },
    {
      "inputs": [],
      "name": "LengthMismatch",
      "type": "error"
    },
    {
      "inputs": [],
      "name": "NotOwner",
      "type": "error"
    },
    {
      "inputs": [],
      "name": "NotProxy",
      "type": "error"
    },
    {
      "inputs": [],
      "name": "SetupFailed",
      "type": "error"
    },
    {
      "inputs": [],
      "name": "ZeroAddress",
      "type": "error"
    },
    {
      "inputs": [],
      "name": "ZeroStringLength",
      "type": "error"
    },
    {
      "anonymous": false,
      "inputs": [
        {
          "indexed": true,
          "internalType": "address",
          "name": "newOwner",
          "type": "address"
        }
      ],
      "name": "OwnershipTransferred",
      "type": "event"
    },
    {
      "anonymous": false,
      "inputs": [
        {
          "indexed": true,
          "internalType": "address",
          "name": "newImplementation",
          "type": "address"
        }
      ],
      "name": "Upgraded",
      "type": "event"
    },
    {
      "inputs": [
        {
          "internalType": "string",
          "name": "sourceChain",
          "type": "string"
        },
        {
          "internalType": "string",
          "name": "sourceAddress",
          "type": "string"
        }
      ],
      "name": "addTrustedAddress",
      "outputs": [],
      "stateMutability": "nonpayable",
      "type": "function"
    },
    {
      "inputs": [],
      "name": "addressHash",
      "outputs": [
        {
          "internalType": "bytes32",
          "name": "",
          "type": "bytes32"
        }
      ],
      "stateMutability": "view",
      "type": "function"
    },
    {
      "inputs": [],
      "name": "contractId",
      "outputs": [
        {
          "internalType": "bytes32",
          "name": "",
          "type": "bytes32"
        }
      ],
      "stateMutability": "view",
      "type": "function"
    },
    {
      "inputs": [
        {
          "internalType": "string",
          "name": "chainName",
          "type": "string"
        }
      ],
      "name": "getRemoteAddress",
      "outputs": [
        {
          "internalType": "string",
          "name": "remoteAddress",
          "type": "string"
        }
      ],
      "stateMutability": "view",
      "type": "function"
    },
    {
      "inputs": [],
      "name": "implementation",
      "outputs": [
        {
          "internalType": "address",
          "name": "implementation_",
          "type": "address"
        }
      ],
      "stateMutability": "view",
      "type": "function"
    },
    {
      "inputs": [],
      "name": "owner",
      "outputs": [
        {
          "internalType": "address",
          "name": "owner_",
          "type": "address"
        }
      ],
      "stateMutability": "view",
      "type": "function"
    },
    {
      "inputs": [
        {
          "internalType": "string",
          "name": "",
          "type": "string"
        }
      ],
      "name": "remoteAddressHashes",
      "outputs": [
        {
          "internalType": "bytes32",
          "name": "",
          "type": "bytes32"
        }
      ],
      "stateMutability": "view",
      "type": "function"
    },
    {
      "inputs": [
        {
          "internalType": "string",
          "name": "",
          "type": "string"
        }
      ],
      "name": "remoteAddresses",
      "outputs": [
        {
          "internalType": "string",
          "name": "",
          "type": "string"
        }
      ],
      "stateMutability": "view",
      "type": "function"
    },
    {
      "inputs": [
        {
          "internalType": "string",
          "name": "sourceChain",
          "type": "string"
        }
      ],
      "name": "removeTrustedAddress",
      "outputs": [],
      "stateMutability": "nonpayable",
      "type": "function"
    },
    {
      "inputs": [
        {
          "internalType": "bytes",
          "name": "data",
          "type": "bytes"
        }
      ],
      "name": "setup",
      "outputs": [],
      "stateMutability": "nonpayable",
      "type": "function"
    },
    {
      "inputs": [],
      "name": "tokenLinkerAddress",
      "outputs": [
        {
          "internalType": "address",
          "name": "",
          "type": "address"
        }
      ],
      "stateMutability": "view",
      "type": "function"
    },
    {
      "inputs": [
        {
          "internalType": "address",
          "name": "newOwner",
          "type": "address"
        }
      ],
      "name": "transferOwnership",
      "outputs": [],
      "stateMutability": "nonpayable",
      "type": "function"
    },
    {
      "inputs": [
        {
          "internalType": "address",
          "name": "newImplementation",
          "type": "address"
        },
        {
          "internalType": "bytes32",
          "name": "newImplementationCodeHash",
          "type": "bytes32"
        },
        {
          "internalType": "bytes",
          "name": "params",
          "type": "bytes"
        }
      ],
      "name": "upgrade",
      "outputs": [],
      "stateMutability": "nonpayable",
      "type": "function"
    },
    {
      "inputs": [
        {
          "internalType": "string",
          "name": "sourceChain",
          "type": "string"
        },
        {
          "internalType": "string",
          "name": "sourceAddress",
          "type": "string"
        }
      ],
      "name": "validateSender",
      "outputs": [
        {
          "internalType": "bool",
          "name": "",
          "type": "bool"
        }
      ],
      "stateMutability": "view",
      "type": "function"
    }
  ],
  "bytecode": "0x60c06040523480156200001157600080fd5b5060405162001bba38038062001bba833981016040819052620000349162000667565b6001600160a01b0383166200005c5760405163d92e233d60e01b815260040160405180910390fd5b6001600160a01b03831660a05281518151811462000090576040516001621398b960e31b0319815260040160405180910390fd5b620000b160a0516001600160a01b0316620001d860201b62000b0b1760201c565b805160209091012060805260005b81811015620001cd576000848281518110620000df57620000df620006f1565b602002602001015190508051600014156200010d5760405163deba168960e01b815260040160405180910390fd5b6000848381518110620001245762000124620006f1565b60200260200101519050805160001415620001525760405163deba168960e01b815260040160405180910390fd5b8060018360405162000165919062000707565b908152602001604051809103902090805190602001906200018892919062000441565b50805160208201206040518190600090620001a590869062000707565b9081526040519081900360200190205550620001c591508290506200073b565b9050620000bf565b5050505050620007d3565b604051606082811b6001600160601b03191660208301529060009060340160408051601f19818403018152828201909152601082526f181899199a1a9b1b9c1cb0b131b232b360811b602083015280519092506000906200023b90600262000759565b620002489060026200077b565b6001600160401b03811115620002625762000262620004e7565b6040519080825280601f01601f1916602001820160405280156200028d576020820181803683370190505b509050600360fc1b81600081518110620002ab57620002ab620006f1565b60200101906001600160f81b031916908160001a905350600f60fb1b81600181518110620002dd57620002dd620006f1565b60200101906001600160f81b031916908160001a90535060005b83518110156200043857826004858381518110620003195762000319620006f1565b016020015182516001600160f81b031990911690911c60f81c908110620003445762000344620006f1565b01602001516001600160f81b031916826200036183600262000759565b6200036e9060026200077b565b81518110620003815762000381620006f1565b60200101906001600160f81b031916908160001a90535082848281518110620003ae57620003ae620006f1565b602091010151815160f89190911c600f16908110620003d157620003d1620006f1565b01602001516001600160f81b03191682620003ee83600262000759565b620003fb9060036200077b565b815181106200040e576200040e620006f1565b60200101906001600160f81b031916908160001a90535062000430816200073b565b9050620002f7565b50949350505050565b8280546200044f9062000796565b90600052602060002090601f016020900481019282620004735760008555620004be565b82601f106200048e57805160ff1916838001178555620004be565b82800160010185558215620004be579182015b82811115620004be578251825591602001919060010190620004a1565b50620004cc929150620004d0565b5090565b5b80821115620004cc5760008155600101620004d1565b634e487b7160e01b600052604160045260246000fd5b604051601f8201601f191681016001600160401b0381118282101715620005285762000528620004e7565b604052919050565b60005b838110156200054d57818101518382015260200162000533565b838111156200055d576000848401525b50505050565b6000601f83818401126200057657600080fd5b825160206001600160401b0380831115620005955762000595620004e7565b8260051b620005a6838201620004fd565b9384528681018301938381019089861115620005c157600080fd5b84890192505b858310156200065a57825184811115620005e15760008081fd5b8901603f81018b13620005f45760008081fd5b858101516040868211156200060d576200060d620004e7565b62000620828b01601f19168901620004fd565b8281528d82848601011115620006365760008081fd5b62000647838a830184870162000530565b85525050509184019190840190620005c7565b9998505050505050505050565b6000806000606084860312156200067d57600080fd5b83516001600160a01b03811681146200069557600080fd5b60208501519093506001600160401b0380821115620006b357600080fd5b620006c18783880162000563565b93506040860151915080821115620006d857600080fd5b50620006e78682870162000563565b9150509250925092565b634e487b7160e01b600052603260045260246000fd5b600082516200071b81846020870162000530565b9190910192915050565b634e487b7160e01b600052601160045260246000fd5b600060001982141562000752576200075262000725565b5060010190565b600081600019048311821515161562000776576200077662000725565b500290565b6000821982111562000791576200079162000725565b500190565b600181811c90821680620007ab57607f821691505b60208210811415620007cd57634e487b7160e01b600052602260045260246000fd5b50919050565b60805160a0516113b3620008076000396000818161023d015261037b01526000818161028a015261056501526113b36000f3fe608060405234801561001057600080fd5b50600436106100ea5760003560e01c80638da5cb5b1161008c578063a3499c7311610066578063a3499c731461025f578063dc88dfd114610272578063e9c23c6c14610285578063f2fde38b146102ac57600080fd5b80638da5cb5b146101fe5780639ded06df14610225578063a240d46d1461023857600080fd5b806359bfb8e5116100c857806359bfb8e5146101645780635c60da1b1461017957806375541543146101b45780638291286c146101d757600080fd5b80631cf2ad75146100ef578063239cfbab14610118578063281cb9761461012b575b600080fd5b6101026100fd366004610fce565b6102bf565b60405161010f9190611040565b60405180910390f35b610102610126366004611089565b6103b1565b610156610139366004611089565b805160208183018101805160008252928201919093012091525481565b60405190815260200161010f565b61017761017236600461113a565b610456565b005b7f360894a13ba1a3210667c828492db98dca3e2076cc3735a920a3ca505d382bbc545b6040516001600160a01b03909116815260200161010f565b6101c76101c236600461113a565b610517565b604051901515815260200161010f565b6101567f5d9f4d5e6bb737c289f92f2a319c66ba484357595194acb7c2122e48550eda7c81565b7f02016836a56b71f0d02689e69e326f4f4c1b9057164ef592671cf0d37c8040c05461019c565b610177610233366004610fce565b6105d8565b61019c7f000000000000000000000000000000000000000000000000000000000000000081565b61017761026d3660046111c2565b610647565b610177610280366004610fce565b610963565b6101567f000000000000000000000000000000000000000000000000000000000000000081565b6101776102ba366004611210565b610a23565b6060600183836040516102d392919061122b565b908152602001604051809103902080546102ec9061123b565b80601f01602080910402602001604051908101604052809291908181526020018280546103189061123b565b80156103655780601f1061033a57610100808354040283529160200191610365565b820191906000526020600020905b81548152906001019060200180831161034857829003601f168201915b505050505090508051600014156103ab576103a87f00000000000000000000000000000000000000000000000000000000000000006001600160a01b0316610b0b565b90505b92915050565b8051602081830181018051600182529282019190930120915280546103d59061123b565b80601f01602080910402602001604051908101604052809291908181526020018280546104019061123b565b801561044e5780601f106104235761010080835404028352916020019161044e565b820191906000526020600020905b81548152906001019060200180831161043157829003601f168201915b505050505081565b3361047f7f02016836a56b71f0d02689e69e326f4f4c1b9057164ef592671cf0d37c8040c05490565b6001600160a01b0316146104a6576040516330cd747160e01b815260040160405180910390fd5b81816040516104b692919061122b565b6040518091039020600085856040516104d092919061122b565b9081526020016040518091039020819055508181600186866040516104f692919061122b565b908152604051908190036020019020610510929091610e78565b5050505050565b60008061055984848080601f016020809104026020016040519081016040528093929190818152602001838380828437600092019190915250610ddb92505050565b805160208201209091507f0000000000000000000000000000000000000000000000000000000000000000811415610596576001925050506105d0565b600087876040516105a892919061122b565b9081526020016040518091039020548114156105c9576001925050506105d0565b6000925050505b949350505050565b60006106027f360894a13ba1a3210667c828492db98dca3e2076cc3735a920a3ca505d382bbc5490565b6001600160a01b03161415610643576040517fbf10dd3a00000000000000000000000000000000000000000000000000000000815260040160405180910390fd5b5050565b336106707f02016836a56b71f0d02689e69e326f4f4c1b9057164ef592671cf0d37c8040c05490565b6001600160a01b031614610697576040516330cd747160e01b815260040160405180910390fd5b306001600160a01b0316638291286c6040518163ffffffff1660e01b815260040160206040518083038186803b1580156106d057600080fd5b505afa1580156106e4573d6000803e3d6000fd5b505050506040513d601f19601f820116820180604052508101906107089190611276565b846001600160a01b0316638291286c6040518163ffffffff1660e01b815260040160206040518083038186803b15801561074157600080fd5b505afa158015610755573d6000803e3d6000fd5b505050506040513d601f19601f820116820180604052508101906107799190611276565b146107b0576040517f68155f9a00000000000000000000000000000000000000000000000000000000815260040160405180910390fd5b836001600160a01b03163f83146107f3576040517f8f84fb2400000000000000000000000000000000000000000000000000000000815260040160405180910390fd5b8015610908576000846001600160a01b0316639ded06df60e01b848460405160240161082092919061128f565b60408051601f198184030181529181526020820180517bffffffffffffffffffffffffffffffffffffffffffffffffffffffff167fffffffff0000000000000000000000000000000000000000000000000000000090941693909317909252905161088b91906112be565b600060405180830381855af49150503d80600081146108c6576040519150601f19603f3d011682016040523d82523d6000602084013e6108cb565b606091505b5050905080610906576040517f97905dfb00000000000000000000000000000000000000000000000000000000815260040160405180910390fd5b505b6040516001600160a01b038516907fbc7cd75a20ee27fd9adebab32041f755214dbc6bffa90cc0225b39da2e5c2d3b90600090a25050507f360894a13ba1a3210667c828492db98dca3e2076cc3735a920a3ca505d382bbc55565b3361098c7f02016836a56b71f0d02689e69e326f4f4c1b9057164ef592671cf0d37c8040c05490565b6001600160a01b0316146109b3576040516330cd747160e01b815260040160405180910390fd5b6000801b600083836040516109c992919061122b565b90815260200160405180910390208190555060405180602001604052806000815250600183836040516109fd92919061122b565b90815260200160405180910390209080519060200190610a1e929190610efc565b505050565b33610a4c7f02016836a56b71f0d02689e69e326f4f4c1b9057164ef592671cf0d37c8040c05490565b6001600160a01b031614610a73576040516330cd747160e01b815260040160405180910390fd5b6001600160a01b038116610ab3576040517f49e27cff00000000000000000000000000000000000000000000000000000000815260040160405180910390fd5b6040516001600160a01b038216907f04dba622d284ed0014ee4b9a6a68386be1a4c08a4913ae272de89199cc68616390600090a27f02016836a56b71f0d02689e69e326f4f4c1b9057164ef592671cf0d37c8040c055565b604051606082811b6bffffffffffffffffffffffff191660208301529060009060340160408051601f19818403018152828201909152601082527f303132333435363738396162636465660000000000000000000000000000000060208301528051909250600090610b7e9060026112f0565b610b8990600261130f565b67ffffffffffffffff811115610ba157610ba1611073565b6040519080825280601f01601f191660200182016040528015610bcb576020820181803683370190505b5090507f300000000000000000000000000000000000000000000000000000000000000081600081518110610c0257610c02611327565b60200101906001600160f81b031916908160001a9053507f780000000000000000000000000000000000000000000000000000000000000081600181518110610c4d57610c4d611327565b60200101906001600160f81b031916908160001a90535060005b8351811015610dd257826004858381518110610c8557610c85611327565b016020015182517fff0000000000000000000000000000000000000000000000000000000000000090911690911c60f81c908110610cc557610cc5611327565b01602001517fff000000000000000000000000000000000000000000000000000000000000001682610cf88360026112f0565b610d0390600261130f565b81518110610d1357610d13611327565b60200101906001600160f81b031916908160001a90535082848281518110610d3d57610d3d611327565b602091010151815160f89190911c600f16908110610d5d57610d5d611327565b01602001517fff000000000000000000000000000000000000000000000000000000000000001682610d908360026112f0565b610d9b90600361130f565b81518110610dab57610dab611327565b60200101906001600160f81b031916908160001a905350610dcb8161133d565b9050610c67565b50949350505050565b80516060908260005b82811015610e6f576000828281518110610e0057610e00611327565b016020015160f81c905060418110801590610e1f575060468160ff1611155b15610e5c57610e2f602082611358565b60f81b838381518110610e4457610e44611327565b60200101906001600160f81b031916908160001a9053505b5080610e678161133d565b915050610de4565b50929392505050565b828054610e849061123b565b90600052602060002090601f016020900481019282610ea65760008555610eec565b82601f10610ebf5782800160ff19823516178555610eec565b82800160010185558215610eec579182015b82811115610eec578235825591602001919060010190610ed1565b50610ef8929150610f70565b5090565b828054610f089061123b565b90600052602060002090601f016020900481019282610f2a5760008555610eec565b82601f10610f4357805160ff1916838001178555610eec565b82800160010185558215610eec579182015b82811115610eec578251825591602001919060010190610f55565b5b80821115610ef85760008155600101610f71565b60008083601f840112610f9757600080fd5b50813567ffffffffffffffff811115610faf57600080fd5b602083019150836020828501011115610fc757600080fd5b9250929050565b60008060208385031215610fe157600080fd5b823567ffffffffffffffff811115610ff857600080fd5b61100485828601610f85565b90969095509350505050565b60005b8381101561102b578181015183820152602001611013565b8381111561103a576000848401525b50505050565b602081526000825180602084015261105f816040850160208701611010565b601f01601f19169190910160400192915050565b634e487b7160e01b600052604160045260246000fd5b60006020828403121561109b57600080fd5b813567ffffffffffffffff808211156110b357600080fd5b818401915084601f8301126110c757600080fd5b8135818111156110d9576110d9611073565b604051601f8201601f19908116603f0116810190838211818310171561110157611101611073565b8160405282815287602084870101111561111a57600080fd5b826020860160208301376000928101602001929092525095945050505050565b6000806000806040858703121561115057600080fd5b843567ffffffffffffffff8082111561116857600080fd5b61117488838901610f85565b9096509450602087013591508082111561118d57600080fd5b5061119a87828801610f85565b95989497509550505050565b80356001600160a01b03811681146111bd57600080fd5b919050565b600080600080606085870312156111d857600080fd5b6111e1856111a6565b935060208501359250604085013567ffffffffffffffff81111561120457600080fd5b61119a87828801610f85565b60006020828403121561122257600080fd5b6103a8826111a6565b8183823760009101908152919050565b600181811c9082168061124f57607f821691505b6020821081141561127057634e487b7160e01b600052602260045260246000fd5b50919050565b60006020828403121561128857600080fd5b5051919050565b60208152816020820152818360408301376000818301604090810191909152601f909201601f19160101919050565b600082516112d0818460208701611010565b9190910192915050565b634e487b7160e01b600052601160045260246000fd5b600081600019048311821515161561130a5761130a6112da565b500290565b60008219821115611322576113226112da565b500190565b634e487b7160e01b600052603260045260246000fd5b6000600019821415611351576113516112da565b5060010190565b600060ff821660ff84168060ff03821115611375576113756112da565b01939250505056fea26469706673582212209e50a154fb1c37e88ed6d01d583cba5e0fcb0aacef2378775b9944257632b5cc64736f6c63430008090033",
  "linkReferences": {},
  "deployedLinkReferences": {}
}