{
  "_format": "hh-sol-artifact-1",
  "contractName": "RemoteAddressValidator",
  "sourceName": "contracts/RemoteAddressValidator.sol",
  "abi": [
    {
      "inputs": [
        {
          "internalType": "address",
          "name": "tokenLinkerAddress_",
          "type": "address"
        },
        {
          "internalType": "string[]",
          "name": "trustedChainNames",
          "type": "string[]"
        },
        {
          "internalType": "string[]",
          "name": "trustedAddresses",
          "type": "string[]"
        }
      ],
      "stateMutability": "nonpayable",
      "type": "constructor"
    },
    {
      "inputs": [],
      "name": "InvalidCodeHash",
      "type": "error"
    },
    {
      "inputs": [],
      "name": "InvalidImplementation",
      "type": "error"
    },
    {
      "inputs": [],
      "name": "InvalidOwner",
      "type": "error"
    },
    {
      "inputs": [],
      "name": "LengthMismatch",
      "type": "error"
    },
    {
      "inputs": [],
      "name": "NotOwner",
      "type": "error"
    },
    {
      "inputs": [],
      "name": "NotProxy",
      "type": "error"
    },
    {
      "inputs": [],
      "name": "SetupFailed",
      "type": "error"
    },
    {
      "inputs": [],
      "name": "ZeroAddress",
      "type": "error"
    },
    {
      "inputs": [],
      "name": "ZeroStringLength",
      "type": "error"
    },
    {
      "anonymous": false,
      "inputs": [
        {
          "indexed": true,
          "internalType": "address",
          "name": "newOwner",
          "type": "address"
        }
      ],
      "name": "OwnershipTransferred",
      "type": "event"
    },
    {
      "anonymous": false,
      "inputs": [
        {
          "indexed": true,
          "internalType": "address",
          "name": "newImplementation",
          "type": "address"
        }
      ],
      "name": "Upgraded",
      "type": "event"
    },
    {
      "inputs": [
        {
          "internalType": "string",
          "name": "sourceChain",
          "type": "string"
        },
        {
          "internalType": "string",
          "name": "sourceAddress",
          "type": "string"
        }
      ],
      "name": "addTrustedAddress",
      "outputs": [],
      "stateMutability": "nonpayable",
      "type": "function"
    },
    {
      "inputs": [],
      "name": "addressHash",
      "outputs": [
        {
          "internalType": "bytes32",
          "name": "",
          "type": "bytes32"
        }
      ],
      "stateMutability": "view",
      "type": "function"
    },
    {
      "inputs": [],
      "name": "contractId",
      "outputs": [
        {
          "internalType": "bytes32",
          "name": "",
          "type": "bytes32"
        }
      ],
      "stateMutability": "view",
      "type": "function"
    },
    {
      "inputs": [
        {
          "internalType": "string",
          "name": "chainName",
          "type": "string"
        }
      ],
      "name": "getRemoteAddress",
      "outputs": [
        {
          "internalType": "string",
          "name": "remoteAddress",
          "type": "string"
        }
      ],
      "stateMutability": "view",
      "type": "function"
    },
    {
      "inputs": [],
      "name": "implementation",
      "outputs": [
        {
          "internalType": "address",
          "name": "implementation_",
          "type": "address"
        }
      ],
      "stateMutability": "view",
      "type": "function"
    },
    {
      "inputs": [],
      "name": "owner",
      "outputs": [
        {
          "internalType": "address",
          "name": "owner_",
          "type": "address"
        }
      ],
      "stateMutability": "view",
      "type": "function"
    },
    {
      "inputs": [
        {
          "internalType": "string",
          "name": "",
          "type": "string"
        }
      ],
      "name": "remoteAddressHashes",
      "outputs": [
        {
          "internalType": "bytes32",
          "name": "",
          "type": "bytes32"
        }
      ],
      "stateMutability": "view",
      "type": "function"
    },
    {
      "inputs": [
        {
          "internalType": "string",
          "name": "",
          "type": "string"
        }
      ],
      "name": "remoteAddresses",
      "outputs": [
        {
          "internalType": "string",
          "name": "",
          "type": "string"
        }
      ],
      "stateMutability": "view",
      "type": "function"
    },
    {
      "inputs": [
        {
          "internalType": "string",
          "name": "sourceChain",
          "type": "string"
        }
      ],
      "name": "removeTrustedAddress",
      "outputs": [],
      "stateMutability": "nonpayable",
      "type": "function"
    },
    {
      "inputs": [
        {
          "internalType": "bytes",
          "name": "data",
          "type": "bytes"
        }
      ],
      "name": "setup",
      "outputs": [],
      "stateMutability": "nonpayable",
      "type": "function"
    },
    {
      "inputs": [],
      "name": "tokenLinkerAddress",
      "outputs": [
        {
          "internalType": "address",
          "name": "",
          "type": "address"
        }
      ],
      "stateMutability": "view",
      "type": "function"
    },
    {
      "inputs": [
        {
          "internalType": "address",
          "name": "newOwner",
          "type": "address"
        }
      ],
      "name": "transferOwnership",
      "outputs": [],
      "stateMutability": "nonpayable",
      "type": "function"
    },
    {
      "inputs": [
        {
          "internalType": "address",
          "name": "newImplementation",
          "type": "address"
        },
        {
          "internalType": "bytes32",
          "name": "newImplementationCodeHash",
          "type": "bytes32"
        },
        {
          "internalType": "bytes",
          "name": "params",
          "type": "bytes"
        }
      ],
      "name": "upgrade",
      "outputs": [],
      "stateMutability": "nonpayable",
      "type": "function"
    },
    {
      "inputs": [
        {
          "internalType": "string",
          "name": "sourceChain",
          "type": "string"
        },
        {
          "internalType": "string",
          "name": "sourceAddress",
          "type": "string"
        }
      ],
      "name": "validateSender",
      "outputs": [
        {
          "internalType": "bool",
          "name": "",
          "type": "bool"
        }
      ],
      "stateMutability": "view",
      "type": "function"
    }
  ],
  "bytecode": "0x60c06040523480156200001157600080fd5b5060405162001b9b38038062001b9b833981016040819052620000349162000667565b6001600160a01b0383166200005c5760405163d92e233d60e01b815260040160405180910390fd5b6001600160a01b03831660a05281518151811462000090576040516001621398b960e31b0319815260040160405180910390fd5b620000b160a0516001600160a01b0316620001d860201b62000aec1760201c565b805160209091012060805260005b81811015620001cd576000848281518110620000df57620000df620006f1565b602002602001015190508051600014156200010d5760405163deba168960e01b815260040160405180910390fd5b6000848381518110620001245762000124620006f1565b60200260200101519050805160001415620001525760405163deba168960e01b815260040160405180910390fd5b8060018360405162000165919062000707565b908152602001604051809103902090805190602001906200018892919062000441565b50805160208201206040518190600090620001a590869062000707565b9081526040519081900360200190205550620001c591508290506200073b565b9050620000bf565b5050505050620007d3565b604051606082811b6001600160601b03191660208301529060009060340160408051601f19818403018152828201909152601082526f181899199a1a9b1b9c1cb0b131b232b360811b602083015280519092506000906200023b90600262000759565b620002489060026200077b565b6001600160401b03811115620002625762000262620004e7565b6040519080825280601f01601f1916602001820160405280156200028d576020820181803683370190505b509050600360fc1b81600081518110620002ab57620002ab620006f1565b60200101906001600160f81b031916908160001a905350600f60fb1b81600181518110620002dd57620002dd620006f1565b60200101906001600160f81b031916908160001a90535060005b83518110156200043857826004858381518110620003195762000319620006f1565b016020015182516001600160f81b031990911690911c60f81c908110620003445762000344620006f1565b01602001516001600160f81b031916826200036183600262000759565b6200036e9060026200077b565b81518110620003815762000381620006f1565b60200101906001600160f81b031916908160001a90535082848281518110620003ae57620003ae620006f1565b602091010151815160f89190911c600f16908110620003d157620003d1620006f1565b01602001516001600160f81b03191682620003ee83600262000759565b620003fb9060036200077b565b815181106200040e576200040e620006f1565b60200101906001600160f81b031916908160001a90535062000430816200073b565b9050620002f7565b50949350505050565b8280546200044f9062000796565b90600052602060002090601f016020900481019282620004735760008555620004be565b82601f106200048e57805160ff1916838001178555620004be565b82800160010185558215620004be579182015b82811115620004be578251825591602001919060010190620004a1565b50620004cc929150620004d0565b5090565b5b80821115620004cc5760008155600101620004d1565b634e487b7160e01b600052604160045260246000fd5b604051601f8201601f191681016001600160401b0381118282101715620005285762000528620004e7565b604052919050565b60005b838110156200054d57818101518382015260200162000533565b838111156200055d576000848401525b50505050565b6000601f83818401126200057657600080fd5b825160206001600160401b0380831115620005955762000595620004e7565b8260051b620005a6838201620004fd565b9384528681018301938381019089861115620005c157600080fd5b84890192505b858310156200065a57825184811115620005e15760008081fd5b8901603f81018b13620005f45760008081fd5b858101516040868211156200060d576200060d620004e7565b62000620828b01601f19168901620004fd565b8281528d82848601011115620006365760008081fd5b62000647838a830184870162000530565b85525050509184019190840190620005c7565b9998505050505050505050565b6000806000606084860312156200067d57600080fd5b83516001600160a01b03811681146200069557600080fd5b60208501519093506001600160401b0380821115620006b357600080fd5b620006c18783880162000563565b93506040860151915080821115620006d857600080fd5b50620006e78682870162000563565b9150509250925092565b634e487b7160e01b600052603260045260246000fd5b600082516200071b81846020870162000530565b9190910192915050565b634e487b7160e01b600052601160045260246000fd5b600060001982141562000752576200075262000725565b5060010190565b600081600019048311821515161562000776576200077662000725565b500290565b6000821982111562000791576200079162000725565b500190565b600181811c90821680620007ab57607f821691505b60208210811415620007cd57634e487b7160e01b600052602260045260246000fd5b50919050565b60805160a051611394620008076000396000818161021e015261035c01526000818161026b015261054601526113946000f3fe608060405234801561001057600080fd5b50600436106100ea5760003560e01c80638da5cb5b1161008c578063a3499c7311610066578063a3499c7314610240578063dc88dfd114610253578063e9c23c6c14610266578063f2fde38b1461028d57600080fd5b80638da5cb5b146101df5780639ded06df14610206578063a240d46d1461021957600080fd5b806359bfb8e5116100c857806359bfb8e5146101645780635c60da1b1461017957806375541543146101b45780638291286c146101d757600080fd5b80631cf2ad75146100ef578063239cfbab14610118578063281cb9761461012b575b600080fd5b6101026100fd366004610faf565b6102a0565b60405161010f9190611021565b60405180910390f35b61010261012636600461106a565b610392565b61015661013936600461106a565b805160208183018101805160008252928201919093012091525481565b60405190815260200161010f565b61017761017236600461111b565b610437565b005b7f360894a13ba1a3210667c828492db98dca3e2076cc3735a920a3ca505d382bbc545b6040516001600160a01b03909116815260200161010f565b6101c76101c236600461111b565b6104f8565b604051901515815260200161010f565b610156600081565b7f02016836a56b71f0d02689e69e326f4f4c1b9057164ef592671cf0d37c8040c05461019c565b610177610214366004610faf565b6105b9565b61019c7f000000000000000000000000000000000000000000000000000000000000000081565b61017761024e3660046111a3565b610628565b610177610261366004610faf565b610944565b6101567f000000000000000000000000000000000000000000000000000000000000000081565b61017761029b3660046111f1565b610a04565b6060600183836040516102b492919061120c565b908152602001604051809103902080546102cd9061121c565b80601f01602080910402602001604051908101604052809291908181526020018280546102f99061121c565b80156103465780601f1061031b57610100808354040283529160200191610346565b820191906000526020600020905b81548152906001019060200180831161032957829003601f168201915b5050505050905080516000141561038c576103897f00000000000000000000000000000000000000000000000000000000000000006001600160a01b0316610aec565b90505b92915050565b8051602081830181018051600182529282019190930120915280546103b69061121c565b80601f01602080910402602001604051908101604052809291908181526020018280546103e29061121c565b801561042f5780601f106104045761010080835404028352916020019161042f565b820191906000526020600020905b81548152906001019060200180831161041257829003601f168201915b505050505081565b336104607f02016836a56b71f0d02689e69e326f4f4c1b9057164ef592671cf0d37c8040c05490565b6001600160a01b031614610487576040516330cd747160e01b815260040160405180910390fd5b818160405161049792919061120c565b6040518091039020600085856040516104b192919061120c565b9081526020016040518091039020819055508181600186866040516104d792919061120c565b9081526040519081900360200190206104f1929091610e59565b5050505050565b60008061053a84848080601f016020809104026020016040519081016040528093929190818152602001838380828437600092019190915250610dbc92505050565b805160208201209091507f0000000000000000000000000000000000000000000000000000000000000000811415610577576001925050506105b1565b6000878760405161058992919061120c565b9081526020016040518091039020548114156105aa576001925050506105b1565b6000925050505b949350505050565b60006105e37f360894a13ba1a3210667c828492db98dca3e2076cc3735a920a3ca505d382bbc5490565b6001600160a01b03161415610624576040517fbf10dd3a00000000000000000000000000000000000000000000000000000000815260040160405180910390fd5b5050565b336106517f02016836a56b71f0d02689e69e326f4f4c1b9057164ef592671cf0d37c8040c05490565b6001600160a01b031614610678576040516330cd747160e01b815260040160405180910390fd5b306001600160a01b0316638291286c6040518163ffffffff1660e01b815260040160206040518083038186803b1580156106b157600080fd5b505afa1580156106c5573d6000803e3d6000fd5b505050506040513d601f19601f820116820180604052508101906106e99190611257565b846001600160a01b0316638291286c6040518163ffffffff1660e01b815260040160206040518083038186803b15801561072257600080fd5b505afa158015610736573d6000803e3d6000fd5b505050506040513d601f19601f8201168201806040525081019061075a9190611257565b14610791576040517f68155f9a00000000000000000000000000000000000000000000000000000000815260040160405180910390fd5b836001600160a01b03163f83146107d4576040517f8f84fb2400000000000000000000000000000000000000000000000000000000815260040160405180910390fd5b80156108e9576000846001600160a01b0316639ded06df60e01b8484604051602401610801929190611270565b60408051601f198184030181529181526020820180517bffffffffffffffffffffffffffffffffffffffffffffffffffffffff167fffffffff0000000000000000000000000000000000000000000000000000000090941693909317909252905161086c919061129f565b600060405180830381855af49150503d80600081146108a7576040519150601f19603f3d011682016040523d82523d6000602084013e6108ac565b606091505b50509050806108e7576040517f97905dfb00000000000000000000000000000000000000000000000000000000815260040160405180910390fd5b505b6040516001600160a01b038516907fbc7cd75a20ee27fd9adebab32041f755214dbc6bffa90cc0225b39da2e5c2d3b90600090a25050507f360894a13ba1a3210667c828492db98dca3e2076cc3735a920a3ca505d382bbc55565b3361096d7f02016836a56b71f0d02689e69e326f4f4c1b9057164ef592671cf0d37c8040c05490565b6001600160a01b031614610994576040516330cd747160e01b815260040160405180910390fd5b6000801b600083836040516109aa92919061120c565b90815260200160405180910390208190555060405180602001604052806000815250600183836040516109de92919061120c565b908152602001604051809103902090805190602001906109ff929190610edd565b505050565b33610a2d7f02016836a56b71f0d02689e69e326f4f4c1b9057164ef592671cf0d37c8040c05490565b6001600160a01b031614610a54576040516330cd747160e01b815260040160405180910390fd5b6001600160a01b038116610a94576040517f49e27cff00000000000000000000000000000000000000000000000000000000815260040160405180910390fd5b6040516001600160a01b038216907f04dba622d284ed0014ee4b9a6a68386be1a4c08a4913ae272de89199cc68616390600090a27f02016836a56b71f0d02689e69e326f4f4c1b9057164ef592671cf0d37c8040c055565b604051606082811b6bffffffffffffffffffffffff191660208301529060009060340160408051601f19818403018152828201909152601082527f303132333435363738396162636465660000000000000000000000000000000060208301528051909250600090610b5f9060026112d1565b610b6a9060026112f0565b67ffffffffffffffff811115610b8257610b82611054565b6040519080825280601f01601f191660200182016040528015610bac576020820181803683370190505b5090507f300000000000000000000000000000000000000000000000000000000000000081600081518110610be357610be3611308565b60200101906001600160f81b031916908160001a9053507f780000000000000000000000000000000000000000000000000000000000000081600181518110610c2e57610c2e611308565b60200101906001600160f81b031916908160001a90535060005b8351811015610db357826004858381518110610c6657610c66611308565b016020015182517fff0000000000000000000000000000000000000000000000000000000000000090911690911c60f81c908110610ca657610ca6611308565b01602001517fff000000000000000000000000000000000000000000000000000000000000001682610cd98360026112d1565b610ce49060026112f0565b81518110610cf457610cf4611308565b60200101906001600160f81b031916908160001a90535082848281518110610d1e57610d1e611308565b602091010151815160f89190911c600f16908110610d3e57610d3e611308565b01602001517fff000000000000000000000000000000000000000000000000000000000000001682610d718360026112d1565b610d7c9060036112f0565b81518110610d8c57610d8c611308565b60200101906001600160f81b031916908160001a905350610dac8161131e565b9050610c48565b50949350505050565b80516060908260005b82811015610e50576000828281518110610de157610de1611308565b016020015160f81c905060418110801590610e00575060468160ff1611155b15610e3d57610e10602082611339565b60f81b838381518110610e2557610e25611308565b60200101906001600160f81b031916908160001a9053505b5080610e488161131e565b915050610dc5565b50929392505050565b828054610e659061121c565b90600052602060002090601f016020900481019282610e875760008555610ecd565b82601f10610ea05782800160ff19823516178555610ecd565b82800160010185558215610ecd579182015b82811115610ecd578235825591602001919060010190610eb2565b50610ed9929150610f51565b5090565b828054610ee99061121c565b90600052602060002090601f016020900481019282610f0b5760008555610ecd565b82601f10610f2457805160ff1916838001178555610ecd565b82800160010185558215610ecd579182015b82811115610ecd578251825591602001919060010190610f36565b5b80821115610ed95760008155600101610f52565b60008083601f840112610f7857600080fd5b50813567ffffffffffffffff811115610f9057600080fd5b602083019150836020828501011115610fa857600080fd5b9250929050565b60008060208385031215610fc257600080fd5b823567ffffffffffffffff811115610fd957600080fd5b610fe585828601610f66565b90969095509350505050565b60005b8381101561100c578181015183820152602001610ff4565b8381111561101b576000848401525b50505050565b6020815260008251806020840152611040816040850160208701610ff1565b601f01601f19169190910160400192915050565b634e487b7160e01b600052604160045260246000fd5b60006020828403121561107c57600080fd5b813567ffffffffffffffff8082111561109457600080fd5b818401915084601f8301126110a857600080fd5b8135818111156110ba576110ba611054565b604051601f8201601f19908116603f011681019083821181831017156110e2576110e2611054565b816040528281528760208487010111156110fb57600080fd5b826020860160208301376000928101602001929092525095945050505050565b6000806000806040858703121561113157600080fd5b843567ffffffffffffffff8082111561114957600080fd5b61115588838901610f66565b9096509450602087013591508082111561116e57600080fd5b5061117b87828801610f66565b95989497509550505050565b80356001600160a01b038116811461119e57600080fd5b919050565b600080600080606085870312156111b957600080fd5b6111c285611187565b935060208501359250604085013567ffffffffffffffff8111156111e557600080fd5b61117b87828801610f66565b60006020828403121561120357600080fd5b61038982611187565b8183823760009101908152919050565b600181811c9082168061123057607f821691505b6020821081141561125157634e487b7160e01b600052602260045260246000fd5b50919050565b60006020828403121561126957600080fd5b5051919050565b60208152816020820152818360408301376000818301604090810191909152601f909201601f19160101919050565b600082516112b1818460208701610ff1565b9190910192915050565b634e487b7160e01b600052601160045260246000fd5b60008160001904831182151516156112eb576112eb6112bb565b500290565b60008219821115611303576113036112bb565b500190565b634e487b7160e01b600052603260045260246000fd5b6000600019821415611332576113326112bb565b5060010190565b600060ff821660ff84168060ff03821115611356576113566112bb565b01939250505056fea264697066735822122011efd3abe0c661cc800b53ff36c010ac1b640e53e9320ff8fb8ccf3dcec2b6df64736f6c63430008090033",
  "linkReferences": {},
  "deployedLinkReferences": {}
}