{
  "_format": "hh-sol-artifact-1",
  "contractName": "TokenLinker",
  "sourceName": "contracts/TokenLinker.sol",
  "abi": [
    {
      "inputs": [
        {
          "internalType": "address",
          "name": "gatewayAddress_",
          "type": "address"
        },
        {
          "internalType": "address",
          "name": "gasServiceAddress_",
          "type": "address"
        },
        {
          "internalType": "address",
          "name": "remoteAddressValidatorAddress_",
          "type": "address"
        },
        {
          "internalType": "string",
          "name": "chainName",
          "type": "string"
        }
      ],
      "stateMutability": "nonpayable",
      "type": "constructor"
    },
    {
      "inputs": [],
      "name": "AlreadyRegistered",
      "type": "error"
    },
    {
      "inputs": [],
      "name": "BurnFailed",
      "type": "error"
    },
    {
      "inputs": [],
      "name": "InvalidAddress",
      "type": "error"
    },
    {
      "inputs": [],
      "name": "InvalidCodeHash",
      "type": "error"
    },
    {
      "inputs": [],
      "name": "InvalidImplementation",
      "type": "error"
    },
    {
      "inputs": [],
      "name": "InvalidOwner",
      "type": "error"
    },
    {
      "inputs": [],
      "name": "MintFailed",
      "type": "error"
    },
    {
      "inputs": [],
      "name": "NotApprovedByGateway",
      "type": "error"
    },
    {
      "inputs": [],
      "name": "NotGatewayToken",
      "type": "error"
    },
    {
      "inputs": [],
      "name": "NotNativeToken",
      "type": "error"
    },
    {
      "inputs": [],
      "name": "NotOwner",
      "type": "error"
    },
    {
      "inputs": [],
      "name": "NotProxy",
      "type": "error"
    },
    {
      "inputs": [],
      "name": "SetupFailed",
      "type": "error"
    },
    {
      "inputs": [],
      "name": "SymbolTooLong",
      "type": "error"
    },
    {
      "inputs": [],
      "name": "TokenLinkerZeroAddress",
      "type": "error"
    },
    {
      "inputs": [],
      "name": "TransferFailed",
      "type": "error"
    },
    {
      "inputs": [],
      "name": "TransferFromFailed",
      "type": "error"
    },
    {
      "anonymous": false,
      "inputs": [
        {
          "indexed": true,
          "internalType": "address",
          "name": "newOwner",
          "type": "address"
        }
      ],
      "name": "OwnershipTransferred",
      "type": "event"
    },
    {
      "anonymous": false,
      "inputs": [
        {
          "indexed": false,
          "internalType": "string",
          "name": "sourceChain",
          "type": "string"
        },
        {
          "indexed": true,
          "internalType": "address",
          "name": "destinationAddress",
          "type": "address"
        },
        {
          "indexed": true,
          "internalType": "uint256",
          "name": "amount",
          "type": "uint256"
        }
      ],
      "name": "Receiving",
      "type": "event"
    },
    {
      "anonymous": false,
      "inputs": [
        {
          "indexed": false,
          "internalType": "string",
          "name": "sourceChain",
          "type": "string"
        },
        {
          "indexed": true,
          "internalType": "address",
          "name": "destinationAddress",
          "type": "address"
        },
        {
          "indexed": true,
          "internalType": "uint256",
          "name": "amount",
          "type": "uint256"
        },
        {
          "indexed": true,
          "internalType": "address",
          "name": "from",
          "type": "address"
        },
        {
          "indexed": false,
          "internalType": "bytes",
          "name": "data",
          "type": "bytes"
        }
      ],
      "name": "ReceivingWithData",
      "type": "event"
    },
    {
      "anonymous": false,
      "inputs": [
        {
          "indexed": false,
          "internalType": "string",
          "name": "destinationChain",
          "type": "string"
        },
        {
          "indexed": false,
          "internalType": "bytes",
          "name": "destinationAddress",
          "type": "bytes"
        },
        {
          "indexed": true,
          "internalType": "uint256",
          "name": "amount",
          "type": "uint256"
        }
      ],
      "name": "Sending",
      "type": "event"
    },
    {
      "anonymous": false,
      "inputs": [
        {
          "indexed": false,
          "internalType": "string",
          "name": "destinationChain",
          "type": "string"
        },
        {
          "indexed": false,
          "internalType": "bytes",
          "name": "destinationAddress",
          "type": "bytes"
        },
        {
          "indexed": true,
          "internalType": "uint256",
          "name": "amount",
          "type": "uint256"
        },
        {
          "indexed": true,
          "internalType": "address",
          "name": "from",
          "type": "address"
        },
        {
          "indexed": false,
          "internalType": "bytes",
          "name": "data",
          "type": "bytes"
        }
      ],
      "name": "SendingWithData",
      "type": "event"
    },
    {
      "anonymous": false,
      "inputs": [
        {
          "indexed": true,
          "internalType": "address",
          "name": "newImplementation",
          "type": "address"
        }
      ],
      "name": "Upgraded",
      "type": "event"
    },
    {
      "inputs": [],
      "name": "chainNameHash",
      "outputs": [
        {
          "internalType": "bytes32",
          "name": "",
          "type": "bytes32"
        }
      ],
      "stateMutability": "view",
      "type": "function"
    },
    {
      "inputs": [],
      "name": "contractId",
      "outputs": [
        {
          "internalType": "bytes32",
          "name": "",
          "type": "bytes32"
        }
      ],
      "stateMutability": "view",
      "type": "function"
    },
    {
      "inputs": [
        {
          "internalType": "bytes32",
          "name": "tokenId",
          "type": "bytes32"
        },
        {
          "internalType": "string[]",
          "name": "destinationChains",
          "type": "string[]"
        }
      ],
      "name": "deployRemoteTokens",
      "outputs": [],
      "stateMutability": "payable",
      "type": "function"
    },
    {
      "inputs": [
        {
          "internalType": "bytes32",
          "name": "commandId",
          "type": "bytes32"
        },
        {
          "internalType": "string",
          "name": "sourceChain",
          "type": "string"
        },
        {
          "internalType": "string",
          "name": "sourceAddress",
          "type": "string"
        },
        {
          "internalType": "bytes",
          "name": "payload",
          "type": "bytes"
        }
      ],
      "name": "execute",
      "outputs": [],
      "stateMutability": "nonpayable",
      "type": "function"
    },
    {
      "inputs": [
        {
          "internalType": "bytes32",
          "name": "commandId",
          "type": "bytes32"
        },
        {
          "internalType": "string",
          "name": "sourceChain",
          "type": "string"
        },
        {
          "internalType": "string",
          "name": "sourceAddress",
          "type": "string"
        },
        {
          "internalType": "bytes",
          "name": "payload",
          "type": "bytes"
        },
        {
          "internalType": "string",
          "name": "tokenSymbol",
          "type": "string"
        },
        {
          "internalType": "uint256",
          "name": "amount",
          "type": "uint256"
        }
      ],
      "name": "executeWithToken",
      "outputs": [],
      "stateMutability": "nonpayable",
      "type": "function"
    },
    {
      "inputs": [],
      "name": "gasService",
      "outputs": [
        {
          "internalType": "contract IAxelarGasService",
          "name": "",
          "type": "address"
        }
      ],
      "stateMutability": "view",
      "type": "function"
    },
    {
      "inputs": [],
      "name": "gateway",
      "outputs": [
        {
          "internalType": "contract IAxelarGateway",
          "name": "",
          "type": "address"
        }
      ],
      "stateMutability": "view",
      "type": "function"
    },
    {
      "inputs": [
        {
          "internalType": "address",
          "name": "tokenAddress",
          "type": "address"
        }
      ],
      "name": "getNativeTokenId",
      "outputs": [
        {
          "internalType": "bytes32",
          "name": "",
          "type": "bytes32"
        }
      ],
      "stateMutability": "view",
      "type": "function"
    },
    {
      "inputs": [
        {
          "internalType": "bytes32",
          "name": "tokenId",
          "type": "bytes32"
        }
      ],
      "name": "getTokenAddress",
      "outputs": [
        {
          "internalType": "address",
          "name": "",
          "type": "address"
        }
      ],
      "stateMutability": "view",
      "type": "function"
    },
    {
      "inputs": [],
      "name": "implementation",
      "outputs": [
        {
          "internalType": "address",
          "name": "implementation_",
          "type": "address"
        }
      ],
      "stateMutability": "view",
      "type": "function"
    },
    {
      "inputs": [
        {
          "internalType": "bytes32",
          "name": "",
          "type": "bytes32"
        }
      ],
      "name": "originalChain",
      "outputs": [
        {
          "internalType": "string",
          "name": "",
          "type": "string"
        }
      ],
      "stateMutability": "view",
      "type": "function"
    },
    {
      "inputs": [],
      "name": "owner",
      "outputs": [
        {
          "internalType": "address",
          "name": "owner_",
          "type": "address"
        }
      ],
      "stateMutability": "view",
      "type": "function"
    },
    {
      "inputs": [
        {
          "internalType": "address",
          "name": "tokenAddress",
          "type": "address"
        },
        {
          "internalType": "string",
          "name": "",
          "type": "string"
        },
        {
          "internalType": "bytes",
          "name": "sourceAddress",
          "type": "bytes"
        },
        {
          "internalType": "uint256",
          "name": "amount",
          "type": "uint256"
        },
        {
          "internalType": "bytes",
          "name": "data",
          "type": "bytes"
        }
      ],
      "name": "processToken",
      "outputs": [],
      "stateMutability": "nonpayable",
      "type": "function"
    },
    {
      "inputs": [
        {
          "internalType": "address",
          "name": "tokenAddress",
          "type": "address"
        }
      ],
      "name": "registerNativeGatewayToken",
      "outputs": [
        {
          "internalType": "bytes32",
          "name": "tokenId",
          "type": "bytes32"
        }
      ],
      "stateMutability": "nonpayable",
      "type": "function"
    },
    {
      "inputs": [
        {
          "internalType": "address",
          "name": "tokenAddress",
          "type": "address"
        },
        {
          "internalType": "bytes32",
          "name": "tokenId",
          "type": "bytes32"
        },
        {
          "internalType": "string",
          "name": "origin",
          "type": "string"
        }
      ],
      "name": "registerRemoteGatewayToken",
      "outputs": [],
      "stateMutability": "nonpayable",
      "type": "function"
    },
    {
      "inputs": [
        {
          "internalType": "address",
          "name": "tokenAddress",
          "type": "address"
        }
      ],
      "name": "registerToken",
      "outputs": [
        {
          "internalType": "bytes32",
          "name": "tokenId",
          "type": "bytes32"
        }
      ],
      "stateMutability": "nonpayable",
      "type": "function"
    },
    {
      "inputs": [
        {
          "internalType": "address",
          "name": "tokenAddress",
          "type": "address"
        },
        {
          "internalType": "string[]",
          "name": "destinationChains",
          "type": "string[]"
        }
      ],
      "name": "registerTokenAndDeployRemoteTokens",
      "outputs": [
        {
          "internalType": "bytes32",
          "name": "tokenId",
          "type": "bytes32"
        }
      ],
      "stateMutability": "payable",
      "type": "function"
    },
    {
      "inputs": [],
      "name": "remoteAddressValidator",
      "outputs": [
        {
          "internalType": "contract IRemoteAddressValidator",
          "name": "",
          "type": "address"
        }
      ],
      "stateMutability": "view",
      "type": "function"
    },
    {
      "inputs": [
        {
          "internalType": "bytes32",
          "name": "tokenId",
          "type": "bytes32"
        },
        {
          "internalType": "string",
          "name": "destinationChain",
          "type": "string"
        },
        {
          "internalType": "bytes",
          "name": "to",
          "type": "bytes"
        },
        {
          "internalType": "uint256",
          "name": "amount",
          "type": "uint256"
        }
      ],
      "name": "sendToken",
      "outputs": [],
      "stateMutability": "payable",
      "type": "function"
    },
    {
      "inputs": [
        {
          "internalType": "bytes32",
          "name": "tokenId",
          "type": "bytes32"
        },
        {
          "internalType": "string",
          "name": "destinationChain",
          "type": "string"
        },
        {
          "internalType": "bytes",
          "name": "to",
          "type": "bytes"
        },
        {
          "internalType": "uint256",
          "name": "amount",
          "type": "uint256"
        },
        {
          "internalType": "bytes",
          "name": "data",
          "type": "bytes"
        }
      ],
      "name": "sendTokenWithData",
      "outputs": [],
      "stateMutability": "payable",
      "type": "function"
    },
    {
      "inputs": [
        {
          "internalType": "bytes",
          "name": "data",
          "type": "bytes"
        }
      ],
      "name": "setup",
      "outputs": [],
      "stateMutability": "nonpayable",
      "type": "function"
    },
    {
      "inputs": [
        {
          "internalType": "address",
          "name": "",
          "type": "address"
        }
      ],
      "name": "tokenIds",
      "outputs": [
        {
          "internalType": "bytes32",
          "name": "",
          "type": "bytes32"
        }
      ],
      "stateMutability": "view",
      "type": "function"
    },
    {
      "inputs": [
        {
          "internalType": "bytes32",
          "name": "",
          "type": "bytes32"
        }
      ],
      "name": "tokenRegistry",
      "outputs": [
        {
          "internalType": "bytes32",
          "name": "",
          "type": "bytes32"
        }
      ],
      "stateMutability": "view",
      "type": "function"
    },
    {
      "inputs": [
        {
          "internalType": "address",
          "name": "newOwner",
          "type": "address"
        }
      ],
      "name": "transferOwnership",
      "outputs": [],
      "stateMutability": "nonpayable",
      "type": "function"
    },
    {
      "inputs": [
        {
          "internalType": "address",
          "name": "newImplementation",
          "type": "address"
        },
        {
          "internalType": "bytes32",
          "name": "newImplementationCodeHash",
          "type": "bytes32"
        },
        {
          "internalType": "bytes",
          "name": "params",
          "type": "bytes"
        }
      ],
      "name": "upgrade",
      "outputs": [],
      "stateMutability": "nonpayable",
      "type": "function"
    }
  ],
  "bytecode": "0x6101006040523480156200001257600080fd5b5060405162005770380380620057708339810160408190526200003591620000f9565b836001600160a01b0381166200005e5760405163e6c4247b60e01b815260040160405180910390fd5b6001600160a01b03908116608052841615806200008257506001600160a01b038316155b15620000a15760405163ba675fc760e01b815260040160405180910390fd5b6001600160a01b0392831660a052911660c052805160209091012060e052506200020e565b80516001600160a01b0381168114620000de57600080fd5b919050565b634e487b7160e01b600052604160045260246000fd5b600080600080608085870312156200011057600080fd5b6200011b85620000c6565b935060206200012c818701620000c6565b93506200013c60408701620000c6565b60608701519093506001600160401b03808211156200015a57600080fd5b818801915088601f8301126200016f57600080fd5b815181811115620001845762000184620000e3565b604051601f8201601f19908116603f01168101908382118183101715620001af57620001af620000e3565b816040528281528b86848701011115620001c857600080fd5b600093505b82841015620001ec5784840186015181850187015292850192620001cd565b82841115620001fe5760008684830101525b989b979a50959850505050505050565b60805160a05160c05160e0516154c6620002aa60003960008181610421015261092a01526000818161055e0152818161186c01528181611a4701528181611c2b0152611ec00152600081816103b501528181611cf40152611f9a015260008181610239015281816106c00152818161080a01528181610a0901528181610b5b01528181611d9a01528181612047015261210901526154c66000f3fe608060405260043610620001b75760003560e01c80638291286c11620000f3578063a3499c731162000095578063d88cfaf6116200006c578063d88cfaf6146200054a578063d8ab3e4b1462000580578063f2fde38b1462000597578063fc97a30314620005bc57600080fd5b8063a3499c7314620004e9578063b12e4410146200050e578063cdc3abd7146200053357600080fd5b806395b282e811620000ca57806395b282e814620004795780639ded06df14620004ad578063a24e8f8c14620004d257600080fd5b80638291286c14620003d7578063864a0dcf146200040d5780638da5cb5b146200044357600080fd5b80633363ce11116200015d57806363ade418116200013457806363ade4181462000365578063688977e9146200038a5780636a22d8cc14620003a157600080fd5b80633363ce1114620002e557806349160658146200030a5780635c60da1b146200032f57600080fd5b80631a98b2e011620001925780631a98b2e014620002745780631d011876146200029b578063284e910914620002c057600080fd5b806309824a8014620001bc5780631043fa3914620001f4578063116191b61462000225575b600080fd5b348015620001c957600080fd5b50620001e1620001db366004620029b2565b620005ed565b6040519081526020015b60405180910390f35b3480156200020157600080fd5b50620001e162000213366004620029d9565b60006020819052908152604090205481565b3480156200023257600080fd5b506200025b7f000000000000000000000000000000000000000000000000000000000000000081565b6040516001600160a01b039091168152602001620001eb565b3480156200028157600080fd5b50620002996200029336600462002a3f565b62000674565b005b348015620002a857600080fd5b5062000299620002ba36600462002b26565b6200079b565b348015620002cd57600080fd5b50620001e1620002df366004620029b2565b62000926565b348015620002f257600080fd5b50620001e162000304366004620029b2565b6200098b565b3480156200031757600080fd5b50620002996200032936600462002b88565b62000b0f565b3480156200033c57600080fd5b507f360894a13ba1a3210667c828492db98dca3e2076cc3735a920a3ca505d382bbc546200025b565b3480156200037257600080fd5b50620002996200038436600462002c36565b62000c2a565b620002996200039b36600462002d40565b62000d2f565b348015620003ae57600080fd5b506200025b7f000000000000000000000000000000000000000000000000000000000000000081565b348015620003e457600080fd5b50620001e17f6ec6af55bf1e5f27006bfa01248d73e8894ba06f23f8002b047607ff2b1944ba81565b3480156200041a57600080fd5b50620001e17f000000000000000000000000000000000000000000000000000000000000000081565b3480156200045057600080fd5b507f02016836a56b71f0d02689e69e326f4f4c1b9057164ef592671cf0d37c8040c0546200025b565b3480156200048657600080fd5b506200049e62000498366004620029d9565b62000df8565b604051620001eb919062002ded565b348015620004ba57600080fd5b5062000299620004cc36600462002e02565b62000e9a565b62000299620004e336600462002e48565b62000f0b565b348015620004f657600080fd5b50620002996200050836600462002b26565b620010a8565b3480156200051b57600080fd5b506200025b6200052d366004620029d9565b620013c3565b620001e16200054436600462002e85565b620013d9565b3480156200055757600080fd5b506200025b7f000000000000000000000000000000000000000000000000000000000000000081565b620002996200059136600462002ec5565b620014aa565b348015620005a457600080fd5b5062000299620005b6366004620029b2565b620015ca565b348015620005c957600080fd5b50620001e1620005db366004620029b2565b60026020526000908152604090205481565b6000620005fa8262000926565b600081815260208190526040902054909150156200062b57604051630ea075bf60e21b815260040160405180910390fd5b6200063682620016b5565b5050506200064682600162001838565b600082815260208181526040808320939093556001600160a01b039094168152600290935290912081905590565b600085856040516200068892919062002f4e565b6040519081900381207f1876eed900000000000000000000000000000000000000000000000000000000825291506001600160a01b037f00000000000000000000000000000000000000000000000000000000000000001690631876eed99062000707908e908e908e908e908e9089908d908d908d9060040162002f87565b602060405180830381600087803b1580156200072257600080fd5b505af115801562000737573d6000803e3d6000fd5b505050506040513d601f19601f820116820180604052508101906200075d919062002fec565b6200077b57604051631403112d60e21b815260040160405180910390fd5b6200078e8a8a8a8a8a8a8a8a8a62001855565b5050505050505050505050565b33620007c57f02016836a56b71f0d02689e69e326f4f4c1b9057164ef592671cf0d37c8040c05490565b6001600160a01b031614620007ed576040516330cd747160e01b815260040160405180910390fd5b6000620007fa85620016b5565b50915050846001600160a01b03167f00000000000000000000000000000000000000000000000000000000000000006001600160a01b031663935b13f6836040518263ffffffff1660e01b815260040162000856919062002ded565b60206040518083038186803b1580156200086f57600080fd5b505afa15801562000884573d6000803e3d6000fd5b505050506040513d601f19601f82011682018060405250810190620008aa919062003010565b6001600160a01b031614620008d25760405163a02d394f60e01b815260040160405180910390fd5b620008e085600183620019ac565b600085815260208181526040808320939093556001600160a01b03881682526002815282822087905586825260019052206200091e908484620028e5565b505050505050565b60007f0000000000000000000000000000000000000000000000000000000000000000826040516020016200096e9291909182526001600160a01b0316602082015260400190565b604051602081830303815290604052805190602001209050919050565b600033620009b77f02016836a56b71f0d02689e69e326f4f4c1b9057164ef592671cf0d37c8040c05490565b6001600160a01b031614620009df576040516330cd747160e01b815260040160405180910390fd5b620009ea8262000926565b90506000620009f983620016b5565b50915050826001600160a01b03167f00000000000000000000000000000000000000000000000000000000000000006001600160a01b031663935b13f6836040518263ffffffff1660e01b815260040162000a55919062002ded565b60206040518083038186803b15801562000a6e57600080fd5b505afa15801562000a83573d6000803e3d6000fd5b505050506040513d601f19601f8201168201806040525081019062000aa9919062003010565b6001600160a01b03161462000ad15760405163a02d394f60e01b815260040160405180910390fd5b62000adf83600183620019ac565b600083815260208181526040808320939093556001600160a01b0390951681526002909452909220819055919050565b6000828260405162000b2392919062002f4e565b6040519081900381207f5f6970c300000000000000000000000000000000000000000000000000000000825291506001600160a01b037f00000000000000000000000000000000000000000000000000000000000000001690635f6970c39062000b9c908b908b908b908b908b90899060040162003030565b602060405180830381600087803b15801562000bb757600080fd5b505af115801562000bcc573d6000803e3d6000fd5b505050506040513d601f19601f8201168201806040525081019062000bf2919062002fec565b62000c1057604051631403112d60e21b815260040160405180910390fd5b62000c2087878787878762001a30565b5050505050505050565b6000808062000c3c848601866200315b565b6001600160a01b038e1660009081526002602052604090205492955090935091506060600385600481111562000c765762000c76620031d8565b141562000cae57600082848a60405160200162000c97949392919062003211565b604051602081830303815290604052905062000d14565b600485600481111562000cc55762000cc5620031d8565b141562000d1457600062000cdc878901896200324c565b9350505050600083858b8e8e8660405160200162000d019796959493929190620032f1565b6040516020818303038152906040529150505b62000d20848262001c11565b50505050505050505050505050565b600083815260208190526040902054600160ff1b8082161462000d7e576040517fbe5abbed00000000000000000000000000000000000000000000000000000000815260040160405180910390fd5b806000808062000d8e84620016b5565b919450925090508560005b8181101562000dec5762000dd98a8686868d8d8781811062000dbf5762000dbf6200335a565b905060200281019062000dd3919062003370565b62001e05565b62000de481620033ba565b905062000d99565b50505050505050505050565b6001602052600090815260409020805462000e1390620033e4565b80601f016020809104026020016040519081016040528092919081815260200182805462000e4190620033e4565b801562000e925780601f1062000e665761010080835404028352916020019162000e92565b820191906000526020600020905b81548152906001019060200180831162000e7457829003601f168201915b505050505081565b600062000ec57f360894a13ba1a3210667c828492db98dca3e2076cc3735a920a3ca505d382bbc5490565b6001600160a01b0316141562000f07576040517fbf10dd3a00000000000000000000000000000000000000000000000000000000815260040160405180910390fd5b5050565b60008881526020819052604090205462000f2781338662001e70565b336001600160a01b0316847f97ef60b8a79c8a0738a21c5473a91ac1920b27e11ac3a9554be126e9507a9d208a8a8a8a898960405162000f6d9695949392919062003421565b60405180910390a3600160fe1b808216141562000ff657604080513360601b6bffffffffffffffffffffffff19166020820152815160148183030181526034820190925260009162000fcf916001918d918b918b918a908a9060540162003470565b604051602081830303815290604052905062000fef898984888562001ea6565b506200109d565b600060018a8888883360405160200162001028919060609190911b6bffffffffffffffffffffffff1916815260140190565b60408051601f1981840301815290829052620010509695949392918b908b90602001620034c6565b60408051601f198184030181526020601f8c018190048102840181019092528a8352925062000dec91908b908b908190840183828082843760009201919091525085925062001c11915050565b505050505050505050565b33620010d27f02016836a56b71f0d02689e69e326f4f4c1b9057164ef592671cf0d37c8040c05490565b6001600160a01b031614620010fa576040516330cd747160e01b815260040160405180910390fd5b306001600160a01b0316638291286c6040518163ffffffff1660e01b815260040160206040518083038186803b1580156200113457600080fd5b505afa15801562001149573d6000803e3d6000fd5b505050506040513d601f19601f820116820180604052508101906200116f919062003531565b846001600160a01b0316638291286c6040518163ffffffff1660e01b815260040160206040518083038186803b158015620011a957600080fd5b505afa158015620011be573d6000803e3d6000fd5b505050506040513d601f19601f82011682018060405250810190620011e4919062003531565b146200121c576040517f68155f9a00000000000000000000000000000000000000000000000000000000815260040160405180910390fd5b836001600160a01b03163f831462001260576040517f8f84fb2400000000000000000000000000000000000000000000000000000000815260040160405180910390fd5b801562001368576000846001600160a01b0316639ded06df60e01b8484604051602401620012909291906200354b565b60408051601f198184030181529181526020820180516001600160e01b03167fffffffff00000000000000000000000000000000000000000000000000000000909416939093179092529051620012e8919062003569565b600060405180830381855af49150503d806000811462001325576040519150601f19603f3d011682016040523d82523d6000602084013e6200132a565b606091505b505090508062001366576040517f97905dfb00000000000000000000000000000000000000000000000000000000815260040160405180910390fd5b505b6040516001600160a01b038516907fbc7cd75a20ee27fd9adebab32041f755214dbc6bffa90cc0225b39da2e5c2d3b90600090a25050507f360894a13ba1a3210667c828492db98dca3e2076cc3735a920a3ca505d382bbc55565b6000818152602081905260408120545b92915050565b6000620013e68462000926565b600081815260208190526040902054909150156200141757604051630ea075bf60e21b815260040160405180910390fd5b6200142484600162001838565b600082815260208181526040808320939093556001600160a01b038716825260029052908120829055829080806200145c88620016b5565b92509250925060005b848110156200149e576200148b868585858c8c8781811062000dbf5762000dbf6200335a565b6200149681620033ba565b905062001465565b50505050509392505050565b600086815260208190526040902054620014c681338462001e70565b817f0243493ea996196ecaa656de2ba4e0e04801636192c57f6d5b9cee069b62343287878787604051620014fe949392919062003587565b60405180910390a2600160fe1b80821614156200155757600080888686604051602001620015309493929190620035bd565b604051602081830303815290604052905062001550878784868562001ea6565b50620015c1565b6000808886868660405160200162001574959493929190620035f2565b60408051601f198184030181526020601f8a01819004810284018101909252888352925062000c209190899089908190840183828082843760009201919091525085925062001c11915050565b50505050505050565b33620015f47f02016836a56b71f0d02689e69e326f4f4c1b9057164ef592671cf0d37c8040c05490565b6001600160a01b0316146200161c576040516330cd747160e01b815260040160405180910390fd5b6001600160a01b0381166200165d576040517f49e27cff00000000000000000000000000000000000000000000000000000000815260040160405180910390fd5b6040516001600160a01b038216907f04dba622d284ed0014ee4b9a6a68386be1a4c08a4913ae272de89199cc68616390600090a27f02016836a56b71f0d02689e69e326f4f4c1b9057164ef592671cf0d37c8040c055565b606080600080849050806001600160a01b03166306fdde036040518163ffffffff1660e01b8152600401600060405180830381600087803b158015620016fa57600080fd5b505af11580156200170f573d6000803e3d6000fd5b505050506040513d6000823e601f3d908101601f191682016040526200173991908101906200362f565b9350806001600160a01b03166395d89b416040518163ffffffff1660e01b8152600401600060405180830381600087803b1580156200177757600080fd5b505af11580156200178c573d6000803e3d6000fd5b505050506040513d6000823e601f3d908101601f19168201604052620017b691908101906200362f565b9250806001600160a01b031663313ce5676040518163ffffffff1660e01b8152600401602060405180830381600087803b158015620017f457600080fd5b505af115801562001809573d6000803e3d6000fd5b505050506040513d601f19601f820116820180604052508101906200182f9190620036bf565b93959294505050565b6001600160a01b0382168115620013d357600160ff1b1792915050565b604051637554154360e01b81526001600160a01b037f00000000000000000000000000000000000000000000000000000000000000001690637554154390620018a9908c908c908c908c9060040162003587565b60206040518083038186803b158015620018c257600080fd5b505afa158015620018d7573d6000803e3d6000fd5b505050506040513d601f19601f82011682018060405250810190620018fd919062002fec565b62001908576200109d565b60006200191885870187620036df565b90506000816004811115620019315762001931620031d8565b14156200197f576000806200194987890189620036fd565b60008281526020819052604090205460148201519295509093509150819062001975908290886200217a565b5050505062000dec565b6001816004811115620019965762001996620031d8565b141562000dec5762000dec8686848d8d620022b5565b6001600160a01b038316600160fe1b178215620019ca57600160ff1b175b8151600b81111562001a08576040517f1124f78b00000000000000000000000000000000000000000000000000000000815260040160405180910390fd5b60f881901b91909117906000600862001a218562003750565b901c9290921795945050505050565b604051637554154360e01b81526001600160a01b037f0000000000000000000000000000000000000000000000000000000000000000169063755415439062001a8490899089908990899060040162003587565b60206040518083038186803b15801562001a9d57600080fd5b505afa15801562001ab2573d6000803e3d6000fd5b505050506040513d601f19601f8201168201806040525081019062001ad8919062002fec565b62001ae3576200091e565b600062001af382840184620036df565b9050600281600481111562001b0c5762001b0c620031d8565b141562001b4b5760006060808262001b278688018862003775565b9297509095509350915062001b4190508484848462002379565b50505050620015c1565b600081600481111562001b625762001b62620031d8565b141562001ba657600060608162001b7c8587018762003813565b9195509350915062001b9d90508362001b96846014015190565b8362002428565b505050620015c1565b600181600481111562001bbd5762001bbd620031d8565b1415620015c1576000606081818062001bd98789018962003878565b93995091975095509350915062001c0390508562001bf8866014015190565b858f8f87876200246e565b505050505050505050505050565b604051631cf2ad7560e01b81526000906001600160a01b037f00000000000000000000000000000000000000000000000000000000000000001690631cf2ad759062001c6290869060040162002ded565b60006040518083038186803b15801562001c7b57600080fd5b505afa15801562001c90573d6000803e3d6000fd5b505050506040513d6000823e601f3d908101601f1916820160405262001cba91908101906200362f565b905034801562001d6a576040517f0c93e3bb0000000000000000000000000000000000000000000000000000000081526001600160a01b037f00000000000000000000000000000000000000000000000000000000000000001690630c93e3bb90839062001d35903090899088908a9033906004016200392f565b6000604051808303818588803b15801562001d4f57600080fd5b505af115801562001d64573d6000803e3d6000fd5b50505050505b6040517f1c92115f0000000000000000000000000000000000000000000000000000000081526001600160a01b037f00000000000000000000000000000000000000000000000000000000000000001690631c92115f9062001dd59087908690889060040162003994565b600060405180830381600087803b15801562001df057600080fd5b505af115801562000c20573d6000803e3d6000fd5b600060028787878760405160200162001e23959493929190620039d3565b60408051601f198184030181526020601f86018190048102840181019092528483529250620015c19190859085908190840183828082843760009201919091525085925062001c11915050565b82600160ff1b808216141562001e935762001e8d8184846200252e565b62001ea0565b62001ea08184846200266f565b50505050565b604051631cf2ad7560e01b81526000906001600160a01b037f00000000000000000000000000000000000000000000000000000000000000001690631cf2ad759062001ef990899089906004016200354b565b60006040518083038186803b15801562001f1257600080fd5b505afa15801562001f27573d6000803e3d6000fd5b505050506040513d6000823e601f3d908101601f1916820160405262001f5191908101906200362f565b905034600062001f618662002778565b9050811562002016576040517fc62c20020000000000000000000000000000000000000000000000000000000081526001600160a01b037f0000000000000000000000000000000000000000000000000000000000000000169063c62c200290849062001fe19030908d908d908a908c908a908f90339060040162003a27565b6000604051808303818588803b15801562001ffb57600080fd5b505af115801562002010573d6000803e3d6000fd5b50505050505b856040517f095ea7b30000000000000000000000000000000000000000000000000000000081526001600160a01b037f00000000000000000000000000000000000000000000000000000000000000008116600483015260248201889052919091169063095ea7b390604401602060405180830381600087803b1580156200209d57600080fd5b505af1158015620020b2573d6000803e3d6000fd5b505050506040513d601f19601f82011682018060405250810190620020d8919062002fec565b506040517fb54170840000000000000000000000000000000000000000000000000000000081526001600160a01b037f0000000000000000000000000000000000000000000000000000000000000000169063b5417084906200214a908b908b9088908a9088908d9060040162003aab565b600060405180830381600087803b1580156200216557600080fd5b505af115801562001c03573d6000803e3d6000fd5b604080516001600160a01b038481166024830152604480830185905283518084039091018152606490920183526020820180516001600160e01b03167fa9059cbb000000000000000000000000000000000000000000000000000000001790529151600092839290871691620021f1919062003569565b6000604051808303816000865af19150503d806000811462002230576040519150601f19603f3d011682016040523d82523d6000602084013e62002235565b606091505b50915091506000828015620022655750815115806200226557508180602001905181019062002265919062002fec565b90508015806200227d57506001600160a01b0386163b155b156200091e576040517f90b8ec1800000000000000000000000000000000000000000000000000000000815260040160405180910390fd5b6000808080620022c8888a018a62003b15565b9450945094509450506000620022df846014015190565b60008681526020819052604090205490915080620022ff81848c6200217a565b826001600160a01b03166363ade418828b8b898f8a6040518763ffffffff1660e01b8152600401620023379695949392919062003bc4565b600060405180830381600087803b1580156200235257600080fd5b505af115801562002367573d6000803e3d6000fd5b50505050505050505050505050505050565b60008481526020819052604090205415620023a757604051630ea075bf60e21b815260040160405180910390fd5b60008383836000604051620023bc9062002974565b620023cb949392919062003c19565b604051809103906000f080158015620023e8573d6000803e3d6000fd5b509050620023f881600062001838565b600086815260208181526040808320939093556001600160a01b0390931681526002909252902093909355505050565b60008381526020819052604090205480600160ff1b80821614156200245a57620024548185856200217a565b62002467565b62002467818585620027dc565b5050505050565b60008781526020819052604090205480600160ff1b8082161415620024a0576200249a8189896200217a565b620024ad565b620024ad818989620027dc565b6040517f63ade4180000000000000000000000000000000000000000000000000000000081526001600160a01b038916906363ade41890620024fe9084908a908a908a908e908b9060040162003bc4565b600060405180830381600087803b1580156200251957600080fd5b505af115801562000d20573d6000803e3d6000fd5b604080516001600160a01b038481166024830152306044830152606480830185905283518084039091018152608490920183526020820180516001600160e01b03167f23b872dd000000000000000000000000000000000000000000000000000000001790529151600092839290871691620025ab919062003569565b6000604051808303816000865af19150503d8060008114620025ea576040519150601f19603f3d011682016040523d82523d6000602084013e620025ef565b606091505b509150915060008280156200261f5750815115806200261f5750818060200190518101906200261f919062002fec565b90508015806200263757506001600160a01b0386163b155b156200091e576040517f7939f42400000000000000000000000000000000000000000000000000000000815260040160405180910390fd5b604080516001600160a01b038481166024830152604480830185905283518084039091018152606490920183526020820180516001600160e01b03167f79cc6790000000000000000000000000000000000000000000000000000000001790529151600092861691620026e29162003569565b6000604051808303816000865af19150503d806000811462002721576040519150601f19603f3d011682016040523d82523d6000602084013e62002726565b606091505b505090508015806200274057506001600160a01b0384163b155b1562001ea0576040517f6f16aafc00000000000000000000000000000000000000000000000000000000815260040160405180910390fd5b6060600f60f883901c168067ffffffffffffffff8111156200279e576200279e6200308a565b6040519080825280601f01601f191660200182016040528015620027c9576020820181803683370190505b5060089390931b60208401525090919050565b604080516001600160a01b038481166024830152604480830185905283518084039091018152606490920183526020820180516001600160e01b03167f40c10f190000000000000000000000000000000000000000000000000000000017905291516000928616916200284f9162003569565b6000604051808303816000865af19150503d80600081146200288e576040519150601f19603f3d011682016040523d82523d6000602084013e62002893565b606091505b50509050801580620028ad57506001600160a01b0384163b155b1562001ea0576040517f07637bd800000000000000000000000000000000000000000000000000000000815260040160405180910390fd5b828054620028f390620033e4565b90600052602060002090601f01602090048101928262002917576000855562002962565b82601f10620029325782800160ff1982351617855562002962565b8280016001018555821562002962579182015b828111156200296257823582559160200191906001019062002945565b506200297092915062002982565b5090565b6118378062003c5a83390190565b5b8082111562002970576000815560010162002983565b6001600160a01b0381168114620029af57600080fd5b50565b600060208284031215620029c557600080fd5b8135620029d28162002999565b9392505050565b600060208284031215620029ec57600080fd5b5035919050565b60008083601f84011262002a0657600080fd5b50813567ffffffffffffffff81111562002a1f57600080fd5b60208301915083602082850101111562002a3857600080fd5b9250929050565b60008060008060008060008060008060c08b8d03121562002a5f57600080fd5b8a35995060208b013567ffffffffffffffff8082111562002a7f57600080fd5b62002a8d8e838f01620029f3565b909b50995060408d013591508082111562002aa757600080fd5b62002ab58e838f01620029f3565b909950975060608d013591508082111562002acf57600080fd5b62002add8e838f01620029f3565b909750955060808d013591508082111562002af757600080fd5b5062002b068d828e01620029f3565b9150809450508092505060a08b013590509295989b9194979a5092959850565b6000806000806060858703121562002b3d57600080fd5b843562002b4a8162002999565b935060208501359250604085013567ffffffffffffffff81111562002b6e57600080fd5b62002b7c87828801620029f3565b95989497509550505050565b60008060008060008060006080888a03121562002ba457600080fd5b87359650602088013567ffffffffffffffff8082111562002bc457600080fd5b62002bd28b838c01620029f3565b909850965060408a013591508082111562002bec57600080fd5b62002bfa8b838c01620029f3565b909650945060608a013591508082111562002c1457600080fd5b5062002c238a828b01620029f3565b989b979a50959850939692959293505050565b60008060008060008060008060a0898b03121562002c5357600080fd5b883562002c608162002999565b9750602089013567ffffffffffffffff8082111562002c7e57600080fd5b62002c8c8c838d01620029f3565b909950975060408b013591508082111562002ca657600080fd5b62002cb48c838d01620029f3565b909750955060608b0135945060808b013591508082111562002cd557600080fd5b5062002ce48b828c01620029f3565b999c989b5096995094979396929594505050565b60008083601f84011262002d0b57600080fd5b50813567ffffffffffffffff81111562002d2457600080fd5b6020830191508360208260051b850101111562002a3857600080fd5b60008060006040848603121562002d5657600080fd5b83359250602084013567ffffffffffffffff81111562002d7557600080fd5b62002d838682870162002cf8565b9497909650939450505050565b60005b8381101562002dad57818101518382015260200162002d93565b8381111562001ea05750506000910152565b6000815180845262002dd981602086016020860162002d90565b601f01601f19169290920160200192915050565b602081526000620029d2602083018462002dbf565b6000806020838503121562002e1657600080fd5b823567ffffffffffffffff81111562002e2e57600080fd5b62002e3c85828601620029f3565b90969095509350505050565b60008060008060008060008060a0898b03121562002e6557600080fd5b88359750602089013567ffffffffffffffff8082111562002c7e57600080fd5b60008060006040848603121562002e9b57600080fd5b833562002ea88162002999565b9250602084013567ffffffffffffffff81111562002d7557600080fd5b6000806000806000806080878903121562002edf57600080fd5b86359550602087013567ffffffffffffffff8082111562002eff57600080fd5b62002f0d8a838b01620029f3565b9097509550604089013591508082111562002f2757600080fd5b5062002f3689828a01620029f3565b979a9699509497949695606090950135949350505050565b8183823760009101908152919050565b81835281816020850137506000828201602090810191909152601f909101601f19169091010190565b89815260c06020820152600062002fa360c083018a8c62002f5e565b828103604084015262002fb881898b62002f5e565b9050866060840152828103608084015262002fd581868862002f5e565b9150508260a08301529a9950505050505050505050565b60006020828403121562002fff57600080fd5b81518015158114620029d257600080fd5b6000602082840312156200302357600080fd5b8151620029d28162002999565b8681526080602082015260006200304c60808301878962002f5e565b82810360408401526200306181868862002f5e565b915050826060830152979650505050505050565b8035600581106200308557600080fd5b919050565b634e487b7160e01b600052604160045260246000fd5b604051601f8201601f1916810167ffffffffffffffff81118282101715620030cc57620030cc6200308a565b604052919050565b600067ffffffffffffffff821115620030f157620030f16200308a565b50601f01601f191660200190565b600082601f8301126200311157600080fd5b8135620031286200312282620030d4565b620030a0565b8181528460208386010111156200313e57600080fd5b816020850160208301376000918101602001919091529392505050565b6000806000606084860312156200317157600080fd5b6200317c8462003075565b9250602084013567ffffffffffffffff808211156200319a57600080fd5b620031a887838801620030ff565b93506040860135915080821115620031bf57600080fd5b50620031ce86828701620030ff565b9150509250925092565b634e487b7160e01b600052602160045260246000fd5b600581106200320d57634e487b7160e01b600052602160045260246000fd5b9052565b6200321d8186620031ee565b8360208201526080604082015260006200323b608083018562002dbf565b905082606083015295945050505050565b600080600080608085870312156200326357600080fd5b6200326e8562003075565b9350602085013567ffffffffffffffff808211156200328c57600080fd5b6200329a88838901620030ff565b94506040870135915080821115620032b157600080fd5b620032bf88838901620030ff565b93506060870135915080821115620032d657600080fd5b50620032e587828801620030ff565b91505092959194509250565b620032fd8189620031ee565b86602082015260c0604082015260006200331b60c083018862002dbf565b86606084015282810360808401526200333681868862002f5e565b905082810360a08401526200334c818562002dbf565b9a9950505050505050505050565b634e487b7160e01b600052603260045260246000fd5b6000808335601e198436030181126200338857600080fd5b83018035915067ffffffffffffffff821115620033a457600080fd5b60200191503681900382131562002a3857600080fd5b6000600019821415620033dd57634e487b7160e01b600052601160045260246000fd5b5060010190565b600181811c90821680620033f957607f821691505b602082108114156200341b57634e487b7160e01b600052602260045260246000fd5b50919050565b6060815260006200343760608301888a62002f5e565b82810360208401526200344c81878962002f5e565b905082810360408401526200346381858762002f5e565b9998505050505050505050565b6200347c8189620031ee565b86602082015260a0604082015260006200349b60a08301878962002f5e565b8281036060840152620034af818762002dbf565b905082810360808401526200334c81858762002f5e565b620034d2818a620031ee565b87602082015260c060408201526000620034f160c08301888a62002f5e565b86606084015282810360808401526200350b818762002dbf565b905082810360a08401526200352281858762002f5e565b9b9a5050505050505050505050565b6000602082840312156200354457600080fd5b5051919050565b6020815260006200356160208301848662002f5e565b949350505050565b600082516200357d81846020870162002d90565b9190910192915050565b6040815260006200359d60408301868862002f5e565b8281036020840152620035b281858762002f5e565b979650505050505050565b620035c98186620031ee565b836020820152606060408201526000620035e860608301848662002f5e565b9695505050505050565b620035fe8187620031ee565b8460208201526080604082015260006200361d60808301858762002f5e565b90508260608301529695505050505050565b6000602082840312156200364257600080fd5b815167ffffffffffffffff8111156200365a57600080fd5b8201601f810184136200366c57600080fd5b80516200367d6200312282620030d4565b8181528560208385010111156200369357600080fd5b620036a682602083016020860162002d90565b95945050505050565b60ff81168114620029af57600080fd5b600060208284031215620036d257600080fd5b8151620029d281620036af565b600060208284031215620036f257600080fd5b620029d28262003075565b6000806000606084860312156200371357600080fd5b6200371e8462003075565b925060208401359150604084013567ffffffffffffffff8111156200374257600080fd5b620031ce86828701620030ff565b805160208083015191908110156200341b5760001960209190910360031b1b16919050565b600080600080600060a086880312156200378e57600080fd5b620037998662003075565b945060208601359350604086013567ffffffffffffffff80821115620037be57600080fd5b620037cc89838a01620030ff565b94506060880135915080821115620037e357600080fd5b50620037f288828901620030ff565b92505060808601356200380581620036af565b809150509295509295909350565b600080600080608085870312156200382a57600080fd5b620038358562003075565b935060208501359250604085013567ffffffffffffffff8111156200385957600080fd5b6200386787828801620030ff565b949793965093946060013593505050565b60008060008060008060c087890312156200389257600080fd5b6200389d8762003075565b955060208701359450604087013567ffffffffffffffff80821115620038c257600080fd5b620038d08a838b01620030ff565b9550606089013594506080890135915080821115620038ee57600080fd5b620038fc8a838b01620030ff565b935060a08901359150808211156200391357600080fd5b506200392289828a01620030ff565b9150509295509295509295565b60006001600160a01b03808816835260a060208401526200395460a084018862002dbf565b838103604085015262003968818862002dbf565b905083810360608501526200397e818762002dbf565b9250508084166080840152509695505050505050565b606081526000620039a9606083018662002dbf565b8281036020840152620039bd818662002dbf565b90508281036040840152620035e8818562002dbf565b620039df8187620031ee565b84602082015260a060408201526000620039fd60a083018662002dbf565b828103606084015262003a11818662002dbf565b91505060ff831660808301529695505050505050565b60006001600160a01b03808b16835260e0602084015262003a4d60e084018a8c62002f5e565b838103604085015262003a61818a62002dbf565b9050838103606085015262003a77818962002dbf565b9050838103608085015262003a8d818862002dbf565b60a0850196909652509290921660c090910152509695505050505050565b60a08152600062003ac160a08301888a62002f5e565b828103602084015262003ad5818862002dbf565b9050828103604084015262003aeb818762002dbf565b9050828103606084015262003b01818662002dbf565b915050826080830152979650505050505050565b600080600080600060a0868803121562003b2e57600080fd5b62003b398662003075565b945060208601359350604086013567ffffffffffffffff8082111562003b5e57600080fd5b62003b6c89838a01620030ff565b9450606088013591508082111562003b8357600080fd5b62003b9189838a01620030ff565b9350608088013591508082111562003ba857600080fd5b5062003bb788828901620030ff565b9150509295509295909350565b6001600160a01b038716815260a06020820152600062003be960a08301878962002f5e565b828103604084015262003bfd818762002dbf565b9050846060840152828103608084015262003463818562002dbf565b60808152600062003c2e608083018762002dbf565b828103602084015262003c42818762002dbf565b60ff9590951660408401525050606001529291505056fe60e06040523480156200001157600080fd5b5060405162001837380380620018378339810160408190526200003491620002e1565b83838383838484848260039080519060200190620000549291906200016e565b5081516200006a9060049060208501906200016e565b5060ff166080908152835160208086019190912060408051808201825260018152603160f81b9084015280517f8b73c3c69bb8fe3d512ecc4cf759cc79239f7b179b0ffacaa9a75d522b39400f938101939093528201527fc89efdaa54c0f20c7adf612882df0950f5a951637e0307cdcb4c672f298b8bc6606082015246918101919091523060a082015260c0019150620001029050565b60408051601f1981840301815290829052805160209091012060a052600680546001600160a01b0319163390811790915591506000907f8be0079c531659141344cd1fd0a4f28419497f9722a3daafe3b4186f6b6457e0908290a360c05250620003a995505050505050565b8280546200017c906200036c565b90600052602060002090601f016020900481019282620001a05760008555620001eb565b82601f10620001bb57805160ff1916838001178555620001eb565b82800160010185558215620001eb579182015b82811115620001eb578251825591602001919060010190620001ce565b50620001f9929150620001fd565b5090565b5b80821115620001f95760008155600101620001fe565b634e487b7160e01b600052604160045260246000fd5b600082601f8301126200023c57600080fd5b81516001600160401b038082111562000259576200025962000214565b604051601f8301601f19908116603f0116810190828211818310171562000284576200028462000214565b81604052838152602092508683858801011115620002a157600080fd5b600091505b83821015620002c55785820183015181830184015290820190620002a6565b83821115620002d75760008385830101525b9695505050505050565b60008060008060808587031215620002f857600080fd5b84516001600160401b03808211156200031057600080fd5b6200031e888389016200022a565b955060208701519150808211156200033557600080fd5b5062000344878288016200022a565b935050604085015160ff811681146200035c57600080fd5b6060959095015193969295505050565b600181811c908216806200038157607f821691505b60208210811415620003a357634e487b7160e01b600052602260045260246000fd5b50919050565b60805160a05160c051611450620003e760003960008181610265015261067301526000818161028c01526108de0152600061020101526114506000f3fe608060405234801561001057600080fd5b50600436106101775760003560e01c806340c10f19116100d857806395d89b411161008c578063d505accf11610066578063d505accf14610368578063dd62ed3e1461037b578063f2fde38b146103a657600080fd5b806395d89b411461033a578063a457c2d714610342578063a9059cbb1461035557600080fd5b806379cc6790116100bd57806379cc6790146102f45780637ecebe00146103075780638da5cb5b1461032757600080fd5b806340c10f19146102c157806370a08231146102d457600080fd5b8063313ce5671161012f578063355274ea11610114578063355274ea146102605780633644e5151461028757806339509351146102ae57600080fd5b8063313ce567146101fc57806331eecaf41461023557600080fd5b8063095ea7b311610160578063095ea7b3146101af57806318160ddd146101d257806323b872dd146101e957600080fd5b806306fdde031461017c57806308a1eee11461019a575b600080fd5b6101846103b9565b6040516101919190610e5d565b60405180910390f35b6101ad6101a8366004610e90565b610447565b005b6101c26101bd366004610ec5565b6104a8565b6040519015158152602001610191565b6101db60025481565b604051908152602001610191565b6101c26101f7366004610eef565b6104be565b6102237f000000000000000000000000000000000000000000000000000000000000000081565b60405160ff9091168152602001610191565b610248610243366004610e90565b610515565b6040516001600160a01b039091168152602001610191565b6101db7f000000000000000000000000000000000000000000000000000000000000000081565b6101db7f000000000000000000000000000000000000000000000000000000000000000081565b6101c26102bc366004610ec5565b61060f565b6101ad6102cf366004610ec5565b610646565b6101db6102e2366004610f2b565b60006020819052908152604090205481565b6101ad610302366004610ec5565b6106e7565b6101db610315366004610f2b565b60056020526000908152604090205481565b600654610248906001600160a01b031681565b610184610758565b6101c2610350366004610ec5565b610765565b6101c2610363366004610ec5565b61079c565b6101ad610376366004610f4d565b6107a9565b6101db610389366004610fc0565b600160209081526000928352604080842090915290825290205481565b6101ad6103b4366004610f2b565b610a6c565b600380546103c690610ff3565b80601f01602080910402602001604051908101604052809291908181526020018280546103f290610ff3565b801561043f5780601f106104145761010080835404028352916020019161043f565b820191906000526020600020905b81548152906001019060200180831161042257829003601f168201915b505050505081565b6006546001600160a01b03163314610472576040516330cd747160e01b815260040160405180910390fd5b600061047d82610515565b6001600160a01b0381166000908152602081905260409020549091506104a4908290610b4b565b5050565b60006104b5338484610bfe565b50600192915050565b6001600160a01b038316600090815260016020908152604080832033845290915281205460001981146104ff576104ff85336104fa8685611044565b610bfe565b61050a858585610c9b565b506001949350505050565b6006546040516000917fff00000000000000000000000000000000000000000000000000000000000000916001600160a01b0390911690849061055a60208201610e20565b601f1982820381018352601f90910116604081905261057c919060200161105b565b604051602081830303815290604052805190602001206040516020016105f194939291907fff0000000000000000000000000000000000000000000000000000000000000094909416845260609290921b6bffffffffffffffffffffffff191660018401526015830152603582015260550190565b60408051601f19818403018152919052805160209091012092915050565b3360008181526001602090815260408083206001600160a01b038716845290915281205490916104b59185906104fa908690611077565b6006546001600160a01b03163314610671576040516330cd747160e01b815260040160405180910390fd5b7f000000000000000000000000000000000000000000000000000000000000000061069c8383610d77565b806106a657505050565b8060025411156106e2576040517fa4875a4900000000000000000000000000000000000000000000000000000000815260040160405180910390fd5b505050565b6006546001600160a01b03163314610712576040516330cd747160e01b815260040160405180910390fd5b6001600160a01b0382166000908152600160209081526040808320338452909152902054600019811461074e5761074e83336104fa8585611044565b6106e28383610b4b565b600480546103c690610ff3565b3360008181526001602090815260408083206001600160a01b038716845290915281205490916104b59185906104fa908690611044565b60006104b5338484610c9b565b834211156107e3576040517f1a15a3cc00000000000000000000000000000000000000000000000000000000815260040160405180910390fd5b7f7fffffffffffffffffffffffffffffff5d576e7357a4501ddfe92f46681b20a081111561083d576040517f40c1e74800000000000000000000000000000000000000000000000000000000815260040160405180910390fd5b8260ff16601b1415801561085557508260ff16601c14155b1561088c576040517f119bce3900000000000000000000000000000000000000000000000000000000815260040160405180910390fd5b604080518082018252600281527f19010000000000000000000000000000000000000000000000000000000000006020808301919091526001600160a01b038a166000908152600590915291822080547f0000000000000000000000000000000000000000000000000000000000000000917f6e71edae12b1b97f4d1f60370fef10105fa2faae0126114a169c64845d6126c9918c918c918c91886109308361108f565b909155506040805160208101969096526001600160a01b0394851690860152929091166060840152608083015260a082015260c0810188905260e00160405160208183030381529060405280519060200120604051602001610994939291906110aa565b60408051601f198184030181528282528051602091820120600080855291840180845281905260ff88169284019290925260608301869052608083018590529092509060019060a0016020604051602081039080840390855afa1580156109ff573d6000803e3d6000fd5b505050602060405103519050886001600160a01b0316816001600160a01b031614610a56576040517f8baa579f00000000000000000000000000000000000000000000000000000000815260040160405180910390fd5b610a61898989610bfe565b505050505050505050565b6006546001600160a01b03163314610a97576040516330cd747160e01b815260040160405180910390fd5b6001600160a01b038116610ad7576040517f49e27cff00000000000000000000000000000000000000000000000000000000815260040160405180910390fd5b6006546040516001600160a01b038084169216907f8be0079c531659141344cd1fd0a4f28419497f9722a3daafe3b4186f6b6457e090600090a3600680547fffffffffffffffffffffffff0000000000000000000000000000000000000000166001600160a01b0392909216919091179055565b6001600160a01b038216610b7257604051630da30f6560e31b815260040160405180910390fd5b6001600160a01b03821660009081526020819052604081208054839290610b9a908490611044565b925050819055508060026000828254610bb39190611044565b90915550506040518181526000906001600160a01b038416907fddf252ad1be2c89b69c2b068fc378daa952ba7f163c4a11628f55a4df523b3ef906020015b60405180910390a35050565b6001600160a01b0383161580610c1b57506001600160a01b038216155b15610c3957604051630da30f6560e31b815260040160405180910390fd5b6001600160a01b0383811660008181526001602090815260408083209487168084529482529182902085905590518481527f8c5be1e5ebec7d5bd14f71427d1e84f3dd0314c0f7b2291e5b200ac8c7c3b92591015b60405180910390a3505050565b6001600160a01b0383161580610cb857506001600160a01b038216155b15610cd657604051630da30f6560e31b815260040160405180910390fd5b6001600160a01b03831660009081526020819052604081208054839290610cfe908490611044565b90915550506001600160a01b03821660009081526020819052604081208054839290610d2b908490611077565b92505081905550816001600160a01b0316836001600160a01b03167fddf252ad1be2c89b69c2b068fc378daa952ba7f163c4a11628f55a4df523b3ef83604051610c8e91815260200190565b6001600160a01b038216610d9e57604051630da30f6560e31b815260040160405180910390fd5b8060026000828254610db09190611077565b90915550506001600160a01b03821660009081526020819052604081208054839290610ddd908490611077565b90915550506040518181526001600160a01b038316906000907fddf252ad1be2c89b69c2b068fc378daa952ba7f163c4a11628f55a4df523b3ef90602001610bf2565b610349806110d283390190565b60005b83811015610e48578181015183820152602001610e30565b83811115610e57576000848401525b50505050565b6020815260008251806020840152610e7c816040850160208701610e2d565b601f01601f19169190910160400192915050565b600060208284031215610ea257600080fd5b5035919050565b80356001600160a01b0381168114610ec057600080fd5b919050565b60008060408385031215610ed857600080fd5b610ee183610ea9565b946020939093013593505050565b600080600060608486031215610f0457600080fd5b610f0d84610ea9565b9250610f1b60208501610ea9565b9150604084013590509250925092565b600060208284031215610f3d57600080fd5b610f4682610ea9565b9392505050565b600080600080600080600060e0888a031215610f6857600080fd5b610f7188610ea9565b9650610f7f60208901610ea9565b95506040880135945060608801359350608088013560ff81168114610fa357600080fd5b9699959850939692959460a0840135945060c09093013592915050565b60008060408385031215610fd357600080fd5b610fdc83610ea9565b9150610fea60208401610ea9565b90509250929050565b600181811c9082168061100757607f821691505b6020821081141561102857634e487b7160e01b600052602260045260246000fd5b50919050565b634e487b7160e01b600052601160045260246000fd5b6000828210156110565761105661102e565b500390565b6000825161106d818460208701610e2d565b9190910192915050565b6000821982111561108a5761108a61102e565b500190565b60006000198214156110a3576110a361102e565b5060010190565b600084516110bc818460208901610e2d565b9190910192835250602082015260400191905056fe6080604052600160005534801561001557600080fd5b50610324806100256000396000f3fe608060405234801561001057600080fd5b50600436106100355760003560e01c8062f55d9d1461003a5780631cff79cd1461004f575b600080fd5b61004d6100483660046101da565b610079565b005b61006261005d3660046101fc565b6100bb565b60405161007092919061027f565b60405180910390f35b6002600054141561009d5760405163caa30f5560e01b815260040160405180910390fd5b600260005573ffffffffffffffffffffffffffffffffffffffff8116ff5b60006060600260005414156100e35760405163caa30f5560e01b815260040160405180910390fd5b600260005573ffffffffffffffffffffffffffffffffffffffff85163b610136576040517f6f7c43f100000000000000000000000000000000000000000000000000000000815260040160405180910390fd5b8473ffffffffffffffffffffffffffffffffffffffff16848460405161015d9291906102de565b6000604051808303816000865af19150503d806000811461019a576040519150601f19603f3d011682016040523d82523d6000602084013e61019f565b606091505b50600160005590969095509350505050565b803573ffffffffffffffffffffffffffffffffffffffff811681146101d557600080fd5b919050565b6000602082840312156101ec57600080fd5b6101f5826101b1565b9392505050565b60008060006040848603121561021157600080fd5b61021a846101b1565b9250602084013567ffffffffffffffff8082111561023757600080fd5b818601915086601f83011261024b57600080fd5b81358181111561025a57600080fd5b87602082850101111561026c57600080fd5b6020830194508093505050509250925092565b821515815260006020604081840152835180604085015260005b818110156102b557858101830151858201606001528201610299565b818111156102c7576000606083870101525b50601f01601f191692909201606001949350505050565b818382376000910190815291905056fea2646970667358221220dfb702492c35c6a884ac11997b483e3fee4ff8145c7abb0799d2a2fc8674c39364736f6c63430008090033a26469706673582212200c91fd2c0c0716a838a82654afcb7fba074539452c7c6cd867f9add7ce181d4a64736f6c63430008090033a2646970667358221220153da832a82577d469cc2a20823225b7f1566770ac5fc95ec3c6a38be97d60fb64736f6c63430008090033",
  "linkReferences": {},
  "deployedLinkReferences": {}
}