{
  "_format": "hh-sol-artifact-1",
  "contractName": "TokenLinker",
  "sourceName": "contracts/TokenLinker.sol",
  "abi": [
    {
      "inputs": [
        {
          "internalType": "address",
          "name": "gatewayAddress_",
          "type": "address"
        },
        {
          "internalType": "address",
          "name": "gasServiceAddress_",
          "type": "address"
        },
        {
          "internalType": "address",
          "name": "remoteAddressValidatorAddress_",
          "type": "address"
        },
        {
          "internalType": "string",
          "name": "chainName",
          "type": "string"
        }
      ],
      "stateMutability": "nonpayable",
      "type": "constructor"
    },
    {
      "inputs": [],
      "name": "BurnFailed",
      "type": "error"
    },
    {
      "inputs": [],
      "name": "InvalidAddress",
      "type": "error"
    },
    {
      "inputs": [],
      "name": "MintFailed",
      "type": "error"
    },
    {
      "inputs": [],
      "name": "NotApprovedByGateway",
      "type": "error"
    },
    {
      "inputs": [],
      "name": "NotNativeToken",
      "type": "error"
    },
    {
      "inputs": [],
      "name": "TokenLinkerZeroAddress",
      "type": "error"
    },
    {
      "inputs": [],
      "name": "TransferFailed",
      "type": "error"
    },
    {
      "inputs": [],
      "name": "TransferFromFailed",
      "type": "error"
    },
    {
      "anonymous": false,
      "inputs": [
        {
          "indexed": false,
          "internalType": "string",
          "name": "sourceChain",
          "type": "string"
        },
        {
          "indexed": true,
          "internalType": "address",
          "name": "destinationAddress",
          "type": "address"
        },
        {
          "indexed": true,
          "internalType": "uint256",
          "name": "amount",
          "type": "uint256"
        }
      ],
      "name": "Receiving",
      "type": "event"
    },
    {
      "anonymous": false,
      "inputs": [
        {
          "indexed": false,
          "internalType": "string",
          "name": "sourceChain",
          "type": "string"
        },
        {
          "indexed": true,
          "internalType": "address",
          "name": "destinationAddress",
          "type": "address"
        },
        {
          "indexed": true,
          "internalType": "uint256",
          "name": "amount",
          "type": "uint256"
        },
        {
          "indexed": true,
          "internalType": "address",
          "name": "from",
          "type": "address"
        },
        {
          "indexed": false,
          "internalType": "bytes",
          "name": "data",
          "type": "bytes"
        }
      ],
      "name": "ReceivingWithData",
      "type": "event"
    },
    {
      "anonymous": false,
      "inputs": [
        {
          "indexed": false,
          "internalType": "string",
          "name": "destinationChain",
          "type": "string"
        },
        {
          "indexed": true,
          "internalType": "address",
          "name": "destinationAddress",
          "type": "address"
        },
        {
          "indexed": true,
          "internalType": "uint256",
          "name": "amount",
          "type": "uint256"
        }
      ],
      "name": "Sending",
      "type": "event"
    },
    {
      "anonymous": false,
      "inputs": [
        {
          "indexed": false,
          "internalType": "string",
          "name": "destinationChain",
          "type": "string"
        },
        {
          "indexed": true,
          "internalType": "address",
          "name": "destinationAddress",
          "type": "address"
        },
        {
          "indexed": true,
          "internalType": "uint256",
          "name": "amount",
          "type": "uint256"
        },
        {
          "indexed": true,
          "internalType": "address",
          "name": "from",
          "type": "address"
        },
        {
          "indexed": false,
          "internalType": "bytes",
          "name": "data",
          "type": "bytes"
        }
      ],
      "name": "SendingWithData",
      "type": "event"
    },
    {
      "inputs": [],
      "name": "chainNameHash",
      "outputs": [
        {
          "internalType": "bytes32",
          "name": "",
          "type": "bytes32"
        }
      ],
      "stateMutability": "view",
      "type": "function"
    },
    {
      "inputs": [],
      "name": "contractId",
      "outputs": [
        {
          "internalType": "bytes32",
          "name": "",
          "type": "bytes32"
        }
      ],
      "stateMutability": "view",
      "type": "function"
    },
    {
      "inputs": [
        {
          "internalType": "bytes32",
          "name": "tokenId",
          "type": "bytes32"
        },
        {
          "internalType": "string[]",
          "name": "destinationChains",
          "type": "string[]"
        }
      ],
      "name": "deployRemoteTokens",
      "outputs": [],
      "stateMutability": "payable",
      "type": "function"
    },
    {
      "inputs": [
        {
          "internalType": "bytes32",
          "name": "commandId",
          "type": "bytes32"
        },
        {
          "internalType": "string",
          "name": "sourceChain",
          "type": "string"
        },
        {
          "internalType": "string",
          "name": "sourceAddress",
          "type": "string"
        },
        {
          "internalType": "bytes",
          "name": "payload",
          "type": "bytes"
        }
      ],
      "name": "execute",
      "outputs": [],
      "stateMutability": "nonpayable",
      "type": "function"
    },
    {
      "inputs": [
        {
          "internalType": "bytes32",
          "name": "commandId",
          "type": "bytes32"
        },
        {
          "internalType": "string",
          "name": "sourceChain",
          "type": "string"
        },
        {
          "internalType": "string",
          "name": "sourceAddress",
          "type": "string"
        },
        {
          "internalType": "bytes",
          "name": "payload",
          "type": "bytes"
        },
        {
          "internalType": "string",
          "name": "tokenSymbol",
          "type": "string"
        },
        {
          "internalType": "uint256",
          "name": "amount",
          "type": "uint256"
        }
      ],
      "name": "executeWithToken",
      "outputs": [],
      "stateMutability": "nonpayable",
      "type": "function"
    },
    {
      "inputs": [],
      "name": "gasService",
      "outputs": [
        {
          "internalType": "contract IAxelarGasService",
          "name": "",
          "type": "address"
        }
      ],
      "stateMutability": "view",
      "type": "function"
    },
    {
      "inputs": [],
      "name": "gateway",
      "outputs": [
        {
          "internalType": "contract IAxelarGateway",
          "name": "",
          "type": "address"
        }
      ],
      "stateMutability": "view",
      "type": "function"
    },
    {
      "inputs": [
        {
          "internalType": "address",
          "name": "tokenAddress",
          "type": "address"
        }
      ],
      "name": "getNativeTokenId",
      "outputs": [
        {
          "internalType": "bytes32",
          "name": "",
          "type": "bytes32"
        }
      ],
      "stateMutability": "view",
      "type": "function"
    },
    {
      "inputs": [
        {
          "internalType": "bytes32",
          "name": "tokenId",
          "type": "bytes32"
        }
      ],
      "name": "getTokenAddress",
      "outputs": [
        {
          "internalType": "address",
          "name": "",
          "type": "address"
        }
      ],
      "stateMutability": "view",
      "type": "function"
    },
    {
      "inputs": [
        {
          "internalType": "address",
          "name": "tokenAddress",
          "type": "address"
        }
      ],
      "name": "registerToken",
      "outputs": [
        {
          "internalType": "bytes32",
          "name": "tokenId",
          "type": "bytes32"
        }
      ],
      "stateMutability": "nonpayable",
      "type": "function"
    },
    {
      "inputs": [
        {
          "internalType": "address",
          "name": "tokenAddress",
          "type": "address"
        },
        {
          "internalType": "string[]",
          "name": "destinationChains",
          "type": "string[]"
        }
      ],
      "name": "registerTokenAndDeployRemoteTokens",
      "outputs": [
        {
          "internalType": "bytes32",
          "name": "tokenId",
          "type": "bytes32"
        }
      ],
      "stateMutability": "payable",
      "type": "function"
    },
    {
      "inputs": [],
      "name": "remoteAddressValidator",
      "outputs": [
        {
          "internalType": "contract IRemoteAddressValidator",
          "name": "",
          "type": "address"
        }
      ],
      "stateMutability": "view",
      "type": "function"
    },
    {
      "inputs": [
        {
          "internalType": "bytes32",
          "name": "tokenId",
          "type": "bytes32"
        },
        {
          "internalType": "string",
          "name": "destinationChain",
          "type": "string"
        },
        {
          "internalType": "address",
          "name": "to",
          "type": "address"
        },
        {
          "internalType": "uint256",
          "name": "amount",
          "type": "uint256"
        }
      ],
      "name": "sendToken",
      "outputs": [],
      "stateMutability": "payable",
      "type": "function"
    },
    {
      "inputs": [
        {
          "internalType": "bytes32",
          "name": "tokenId",
          "type": "bytes32"
        },
        {
          "internalType": "string",
          "name": "destinationChain",
          "type": "string"
        },
        {
          "internalType": "address",
          "name": "to",
          "type": "address"
        },
        {
          "internalType": "uint256",
          "name": "amount",
          "type": "uint256"
        },
        {
          "internalType": "bytes",
          "name": "data",
          "type": "bytes"
        }
      ],
      "name": "sendTokenWithData",
      "outputs": [],
      "stateMutability": "payable",
      "type": "function"
    },
    {
      "inputs": [
        {
          "internalType": "bytes32",
          "name": "",
          "type": "bytes32"
        }
      ],
      "name": "tokenRegistry",
      "outputs": [
        {
          "internalType": "bytes32",
          "name": "",
          "type": "bytes32"
        }
      ],
      "stateMutability": "view",
      "type": "function"
    }
  ],
  "bytecode": "0x6101006040523480156200001257600080fd5b5060405162003bda38038062003bda8339810160408190526200003591620000f9565b836001600160a01b0381166200005e5760405163e6c4247b60e01b815260040160405180910390fd5b6001600160a01b03908116608052841615806200008257506001600160a01b038316155b15620000a15760405163ba675fc760e01b815260040160405180910390fd5b6001600160a01b0392831660a052911660c052805160209091012060e052506200020e565b80516001600160a01b0381168114620000de57600080fd5b919050565b634e487b7160e01b600052604160045260246000fd5b600080600080608085870312156200011057600080fd5b6200011b85620000c6565b935060206200012c818701620000c6565b93506200013c60408701620000c6565b60608701519093506001600160401b03808211156200015a57600080fd5b818801915088601f8301126200016f57600080fd5b815181811115620001845762000184620000e3565b604051601f8201601f19908116603f01168101908382118183101715620001af57620001af620000e3565b816040528281528b86848701011115620001c857600080fd5b600093505b82841015620001ec5784840186015181850187015292850192620001cd565b82841115620001fe5760008684830101525b989b979a50959850505050505050565b60805160a05160c05160e05161396162000279600039600081816102cf0152610564015260008181610341015281816109550152610d140152600081816102820152610a2001526000818161019601528181610498015281816106110152610ac801526139616000f3fe608060405260043610620000fb5760003560e01c806349d1ee541162000095578063864a0dcf1162000060578063864a0dcf14620002bb578063b12e441014620002f1578063cdc3abd71462000316578063d88cfaf6146200032d57600080fd5b806349d1ee541462000240578063688977e914620002575780636a22d8cc146200026e5780638291286c14620002a457600080fd5b8063116191b611620000d6578063116191b614620001825780631a98b2e014620001d1578063284e910914620001f657806349160658146200021b57600080fd5b8063028be269146200010057806309824a8014620001195780631043fa391462000151575b600080fd5b620001176200011136600462001578565b62000363565b005b3480156200012657600080fd5b506200013e6200013836600462001619565b6200040e565b6040519081526020015b60405180910390f35b3480156200015e57600080fd5b506200013e6200017036600462001640565b60006020819052908152604090205481565b3480156200018f57600080fd5b50620001b87f000000000000000000000000000000000000000000000000000000000000000081565b6040516001600160a01b03909116815260200162000148565b348015620001de57600080fd5b5062000117620001f03660046200165a565b6200044c565b3480156200020357600080fd5b506200013e6200021536600462001619565b62000560565b3480156200022857600080fd5b50620001176200023a36600462001741565b620005c5565b6200011762000251366004620017cd565b620006d6565b620001176200026836600462001882565b6200076a565b3480156200027b57600080fd5b50620001b87f000000000000000000000000000000000000000000000000000000000000000081565b348015620002b157600080fd5b506200013e600081565b348015620002c857600080fd5b506200013e7f000000000000000000000000000000000000000000000000000000000000000081565b348015620002fe57600080fd5b50620001b86200031036600462001640565b62000837565b6200013e62000327366004620018d2565b6200084d565b3480156200033a57600080fd5b50620001b87f000000000000000000000000000000000000000000000000000000000000000081565b62000370873385620008d8565b336001600160a01b031683856001600160a01b03167f3bbfabcc7e35e2ad8f3dd6e3b389b771d60f874b0db40b1440f8169c2b657a9b89898787604051620003bc94939291906200193b565b60405180910390a460006001888686338787604051602001620003e69796959493929190620019aa565b60405160208183030381529060405290506200040487878362000922565b5050505050505050565b60006200041b8262000560565b9050620004288262000b40565b5050506200043882600162000cc3565b600082815260208190526040902055919050565b600085856040516200046092919062001a01565b6040519081900381207f1876eed900000000000000000000000000000000000000000000000000000000825291506001600160a01b037f00000000000000000000000000000000000000000000000000000000000000001690631876eed990620004df908e908e908e908e908e9089908d908d908d9060040162001a11565b602060405180830381600087803b158015620004fa57600080fd5b505af11580156200050f573d6000803e3d6000fd5b505050506040513d601f19601f8201168201806040525081019062000535919062001a76565b6200055357604051631403112d60e21b815260040160405180910390fd5b5050505050505050505050565b60007f000000000000000000000000000000000000000000000000000000000000000082604051602001620005a89291909182526001600160a01b0316602082015260400190565b604051602081830303815290604052805190602001209050919050565b60008282604051620005d992919062001a01565b6040519081900381207f5f6970c300000000000000000000000000000000000000000000000000000000825291506001600160a01b037f00000000000000000000000000000000000000000000000000000000000000001690635f6970c39062000652908b908b908b908b908b90899060040162001a9a565b602060405180830381600087803b1580156200066d57600080fd5b505af115801562000682573d6000803e3d6000fd5b505050506040513d601f19601f82011682018060405250810190620006a8919062001a76565b620006c657604051631403112d60e21b815260040160405180910390fd5b6200040487878787878762000ce4565b620006e3853383620008d8565b80826001600160a01b03167f3f246df9f24c276e8e6b8f4407ce2238a9d8dec2ea63f3d058f1cbce2a985ee986866040516200072192919062001adf565b60405180910390a360008086848460405160200162000744949392919062001afd565b60405160208183030381529060405290506200076285858362000922565b505050505050565b6000838152602081905260409020546001600160f81b031980821614620007bd576040517fbe5abbed00000000000000000000000000000000000000000000000000000000815260040160405180910390fd5b8060008080620007cd8462000b40565b919450925090508560005b818110156200082b57620008188a8686868d8d87818110620007fe57620007fe62001b31565b905060200281019062000812919062001b47565b62000ebe565b620008238162001b91565b9050620007d8565b50505050505050505050565b6000818152602081905260408120545b92915050565b60006200085a8462000560565b90506200086984600162000cc3565b600082815260208190526040812091909155829080806200088a8862000b40565b92509250925060005b84811015620008cc57620008b9868585858c8c87818110620007fe57620007fe62001b31565b620008c48162001b91565b905062000893565b50505050509392505050565b600083815260208190526040902054806001600160f81b031980821614156200090e576200090881858562000efa565b6200091b565b6200091b8185856200103b565b5050505050565b6040517f1cf2ad750000000000000000000000000000000000000000000000000000000081526000906001600160a01b037f00000000000000000000000000000000000000000000000000000000000000001690631cf2ad75906200098e908790879060040162001adf565b60006040518083038186803b158015620009a757600080fd5b505afa158015620009bc573d6000803e3d6000fd5b505050506040513d6000823e601f3d908101601f19168201604052620009e6919081019062001c5f565b905034801562000a98576040517f0c93e3bb0000000000000000000000000000000000000000000000000000000081526001600160a01b037f00000000000000000000000000000000000000000000000000000000000000001690630c93e3bb90839062000a639030908a908a9089908b90339060040162001d13565b6000604051808303818588803b15801562000a7d57600080fd5b505af115801562000a92573d6000803e3d6000fd5b50505050505b6040517f1c92115f0000000000000000000000000000000000000000000000000000000081526001600160a01b037f00000000000000000000000000000000000000000000000000000000000000001690631c92115f9062000b0590889088908790899060040162001d7a565b600060405180830381600087803b15801562000b2057600080fd5b505af115801562000b35573d6000803e3d6000fd5b505050505050505050565b606080600080849050806001600160a01b03166306fdde036040518163ffffffff1660e01b8152600401600060405180830381600087803b15801562000b8557600080fd5b505af115801562000b9a573d6000803e3d6000fd5b505050506040513d6000823e601f3d908101601f1916820160405262000bc4919081019062001c5f565b9350806001600160a01b03166395d89b416040518163ffffffff1660e01b8152600401600060405180830381600087803b15801562000c0257600080fd5b505af115801562000c17573d6000803e3d6000fd5b505050506040513d6000823e601f3d908101601f1916820160405262000c41919081019062001c5f565b9250806001600160a01b031663313ce5676040518163ffffffff1660e01b8152600401602060405180830381600087803b15801562000c7f57600080fd5b505af115801562000c94573d6000803e3d6000fd5b505050506040513d601f19601f8201168201806040525081019062000cba919062001dca565b93959294505050565b6001600160a01b038216811562000847576001600160f81b03191792915050565b6040517f755415430000000000000000000000000000000000000000000000000000000081526001600160a01b037f0000000000000000000000000000000000000000000000000000000000000000169063755415439062000d519089908990899089906004016200193b565b60206040518083038186803b15801562000d6a57600080fd5b505afa15801562000d7f573d6000803e3d6000fd5b505050506040513d601f19601f8201168201806040525081019062000da5919062001a76565b62000db05762000762565b600062000dc08284018462001dff565b9050600281600281111562000dd95762000dd962001971565b141562000e185760006060808262000df48688018862001e7d565b9297509095509350915062000e0e9050848484846200114a565b5050505062000eb5565b600081600281111562000e2f5762000e2f62001971565b141562000e67576000808062000e488587018762001f1b565b9195509350915062000e5e9050838383620011b4565b50505062000eb5565b600181600281111562000e7e5762000e7e62001971565b141562000eb55760008080606062000e998688018862001f66565b929750909550935091506200055390508484848e8e86620011f1565b50505050505050565b600060028787878760405160200162000edc95949392919062001ff7565b604051602081830303815290604052905062000eb583838362000922565b604080516001600160a01b038481166024830152306044830152606480830185905283518084039091018152608490920183526020820180516001600160e01b03167f23b872dd00000000000000000000000000000000000000000000000000000000179052915160009283929087169162000f7791906200204b565b6000604051808303816000865af19150503d806000811462000fb6576040519150601f19603f3d011682016040523d82523d6000602084013e62000fbb565b606091505b5091509150600082801562000feb57508151158062000feb57508180602001905181019062000feb919062001a76565b90508015806200100357506001600160a01b0386163b155b1562000762576040517f7939f42400000000000000000000000000000000000000000000000000000000815260040160405180910390fd5b604080516001600160a01b038481166024830152604480830185905283518084039091018152606490920183526020820180516001600160e01b03167f79cc6790000000000000000000000000000000000000000000000000000000001790529151600092861691620010ae916200204b565b6000604051808303816000865af19150503d8060008114620010ed576040519150601f19603f3d011682016040523d82523d6000602084013e620010f2565b606091505b505090508015806200110c57506001600160a01b0384163b155b1562001144576040517f6f16aafc00000000000000000000000000000000000000000000000000000000815260040160405180910390fd5b50505050565b600083838360006040516200115f9062001505565b6200116e949392919062002069565b604051809103906000f0801580156200118b573d6000803e3d6000fd5b5090506200119b81600062000cc3565b6000958652602086905260409095209490945550505050565b600083815260208190526040902054806001600160f81b03198082161415620011e45762000908818585620012c1565b6200091b818585620013fc565b600086815260208190526040902054806001600160f81b03198082161415620012275762001221818888620012c1565b62001234565b62001234818888620013fc565b6040517fdd019bf40000000000000000000000000000000000000000000000000000000081526001600160a01b0388169063dd019bf49062001283908490899089908c908a90600401620020a9565b600060405180830381600087803b1580156200129e57600080fd5b505af1158015620012b3573d6000803e3d6000fd5b505050505050505050505050565b604080516001600160a01b038481166024830152604480830185905283518084039091018152606490920183526020820180516001600160e01b03167fa9059cbb0000000000000000000000000000000000000000000000000000000017905291516000928392908716916200133891906200204b565b6000604051808303816000865af19150503d806000811462001377576040519150601f19603f3d011682016040523d82523d6000602084013e6200137c565b606091505b50915091506000828015620013ac575081511580620013ac575081806020019051810190620013ac919062001a76565b9050801580620013c457506001600160a01b0386163b155b1562000762576040517f90b8ec1800000000000000000000000000000000000000000000000000000000815260040160405180910390fd5b604080516001600160a01b038481166024830152604480830185905283518084039091018152606490920183526020820180516001600160e01b03167f40c10f190000000000000000000000000000000000000000000000000000000017905291516000928616916200146f916200204b565b6000604051808303816000865af19150503d8060008114620014ae576040519150601f19603f3d011682016040523d82523d6000602084013e620014b3565b606091505b50509050801580620014cd57506001600160a01b0384163b155b1562001144576040517f07637bd800000000000000000000000000000000000000000000000000000000815260040160405180910390fd5b61183780620020f583390190565b60008083601f8401126200152657600080fd5b50813567ffffffffffffffff8111156200153f57600080fd5b6020830191508360208285010111156200155857600080fd5b9250929050565b6001600160a01b03811681146200157557600080fd5b50565b600080600080600080600060a0888a0312156200159457600080fd5b87359650602088013567ffffffffffffffff80821115620015b457600080fd5b620015c28b838c0162001513565b909850965060408a01359150620015d9826200155f565b9094506060890135935060808901359080821115620015f757600080fd5b50620016068a828b0162001513565b989b979a50959850939692959293505050565b6000602082840312156200162c57600080fd5b813562001639816200155f565b9392505050565b6000602082840312156200165357600080fd5b5035919050565b60008060008060008060008060008060c08b8d0312156200167a57600080fd5b8a35995060208b013567ffffffffffffffff808211156200169a57600080fd5b620016a88e838f0162001513565b909b50995060408d0135915080821115620016c257600080fd5b620016d08e838f0162001513565b909950975060608d0135915080821115620016ea57600080fd5b620016f88e838f0162001513565b909750955060808d01359150808211156200171257600080fd5b50620017218d828e0162001513565b9150809450508092505060a08b013590509295989b9194979a5092959850565b60008060008060008060006080888a0312156200175d57600080fd5b87359650602088013567ffffffffffffffff808211156200177d57600080fd5b6200178b8b838c0162001513565b909850965060408a0135915080821115620017a557600080fd5b620017b38b838c0162001513565b909650945060608a0135915080821115620015f757600080fd5b600080600080600060808688031215620017e657600080fd5b85359450602086013567ffffffffffffffff8111156200180557600080fd5b620018138882890162001513565b909550935050604086013562001829816200155f565b949793965091946060013592915050565b60008083601f8401126200184d57600080fd5b50813567ffffffffffffffff8111156200186657600080fd5b6020830191508360208260051b85010111156200155857600080fd5b6000806000604084860312156200189857600080fd5b83359250602084013567ffffffffffffffff811115620018b757600080fd5b620018c5868287016200183a565b9497909650939450505050565b600080600060408486031215620018e857600080fd5b8335620018f5816200155f565b9250602084013567ffffffffffffffff811115620018b757600080fd5b81835281816020850137506000828201602090810191909152601f909101601f19169091010190565b6040815260006200195160408301868862001912565b82810360208401526200196681858762001912565b979650505050505050565b634e487b7160e01b600052602160045260246000fd5b60038110620019a657634e487b7160e01b600052602160045260246000fd5b9052565b620019b6818962001987565b86602082015260006001600160a01b03808816604084015286606084015280861660808401525060c060a0830152620019f460c08301848662001912565b9998505050505050505050565b8183823760009101908152919050565b89815260c06020820152600062001a2d60c083018a8c62001912565b828103604084015262001a4281898b62001912565b9050866060840152828103608084015262001a5f81868862001912565b9150508260a08301529a9950505050505050505050565b60006020828403121562001a8957600080fd5b815180151581146200163957600080fd5b86815260806020820152600062001ab660808301878962001912565b828103604084015262001acb81868862001912565b915050826060830152979650505050505050565b60208152600062001af560208301848662001912565b949350505050565b6080810162001b0d828762001987565b8460208301526001600160a01b038416604083015282606083015295945050505050565b634e487b7160e01b600052603260045260246000fd5b6000808335601e1984360301811262001b5f57600080fd5b83018035915067ffffffffffffffff82111562001b7b57600080fd5b6020019150368190038213156200155857600080fd5b600060001982141562001bb457634e487b7160e01b600052601160045260246000fd5b5060010190565b634e487b7160e01b600052604160045260246000fd5b604051601f8201601f1916810167ffffffffffffffff8111828210171562001bfd5762001bfd62001bbb565b604052919050565b600067ffffffffffffffff82111562001c225762001c2262001bbb565b50601f01601f191660200190565b60005b8381101562001c4d57818101518382015260200162001c33565b83811115620011445750506000910152565b60006020828403121562001c7257600080fd5b815167ffffffffffffffff81111562001c8a57600080fd5b8201601f8101841362001c9c57600080fd5b805162001cb362001cad8262001c05565b62001bd1565b81815285602083850101111562001cc957600080fd5b62001cdc82602083016020860162001c30565b95945050505050565b6000815180845262001cff81602086016020860162001c30565b601f01601f19169290920160200192915050565b60006001600160a01b03808916835260a0602084015262001d3960a08401888a62001912565b838103604085015262001d4d818862001ce5565b9050838103606085015262001d63818762001ce5565b925050808416608084015250979650505050505050565b60608152600062001d9060608301868862001912565b828103602084015262001da4818662001ce5565b9050828103604084015262001966818562001ce5565b60ff811681146200157557600080fd5b60006020828403121562001ddd57600080fd5b8151620016398162001dba565b80356003811062001dfa57600080fd5b919050565b60006020828403121562001e1257600080fd5b620016398262001dea565b600062001e2e62001cad8462001c05565b905082815283838301111562001e4357600080fd5b828260208301376000602084830101529392505050565b600082601f83011262001e6c57600080fd5b620016398383356020850162001e1d565b600080600080600060a0868803121562001e9657600080fd5b62001ea18662001dea565b945060208601359350604086013567ffffffffffffffff8082111562001ec657600080fd5b62001ed489838a0162001e5a565b9450606088013591508082111562001eeb57600080fd5b5062001efa8882890162001e5a565b925050608086013562001f0d8162001dba565b809150509295509295909350565b6000806000806080858703121562001f3257600080fd5b62001f3d8562001dea565b935060208501359250604085013562001f56816200155f565b9396929550929360600135925050565b600080600080600060a0868803121562001f7f57600080fd5b62001f8a8662001dea565b945060208601359350604086013562001fa3816200155f565b925060608601359150608086013567ffffffffffffffff81111562001fc757600080fd5b8601601f8101881362001fd957600080fd5b62001fea8882356020840162001e1d565b9150509295509295909350565b62002003818762001987565b84602082015260a0604082015260006200202160a083018662001ce5565b828103606084015262002035818662001ce5565b91505060ff831660808301529695505050505050565b600082516200205f81846020870162001c30565b9190910192915050565b6080815260006200207e608083018762001ce5565b828103602084015262002092818762001ce5565b60ff95909516604084015250506060015292915050565b6001600160a01b0386168152608060208201526000620020ce60808301868862001912565b8460408401528281036060840152620020e8818562001ce5565b9897505050505050505056fe60e06040523480156200001157600080fd5b5060405162001837380380620018378339810160408190526200003491620002e1565b83838383838484848260039080519060200190620000549291906200016e565b5081516200006a9060049060208501906200016e565b5060ff166080908152835160208086019190912060408051808201825260018152603160f81b9084015280517f8b73c3c69bb8fe3d512ecc4cf759cc79239f7b179b0ffacaa9a75d522b39400f938101939093528201527fc89efdaa54c0f20c7adf612882df0950f5a951637e0307cdcb4c672f298b8bc6606082015246918101919091523060a082015260c0019150620001029050565b60408051601f1981840301815290829052805160209091012060a052600680546001600160a01b0319163390811790915591506000907f8be0079c531659141344cd1fd0a4f28419497f9722a3daafe3b4186f6b6457e0908290a360c05250620003a995505050505050565b8280546200017c906200036c565b90600052602060002090601f016020900481019282620001a05760008555620001eb565b82601f10620001bb57805160ff1916838001178555620001eb565b82800160010185558215620001eb579182015b82811115620001eb578251825591602001919060010190620001ce565b50620001f9929150620001fd565b5090565b5b80821115620001f95760008155600101620001fe565b634e487b7160e01b600052604160045260246000fd5b600082601f8301126200023c57600080fd5b81516001600160401b038082111562000259576200025962000214565b604051601f8301601f19908116603f0116810190828211818310171562000284576200028462000214565b81604052838152602092508683858801011115620002a157600080fd5b600091505b83821015620002c55785820183015181830184015290820190620002a6565b83821115620002d75760008385830101525b9695505050505050565b60008060008060808587031215620002f857600080fd5b84516001600160401b03808211156200031057600080fd5b6200031e888389016200022a565b955060208701519150808211156200033557600080fd5b5062000344878288016200022a565b935050604085015160ff811681146200035c57600080fd5b6060959095015193969295505050565b600181811c908216806200038157607f821691505b60208210811415620003a357634e487b7160e01b600052602260045260246000fd5b50919050565b60805160a05160c051611450620003e760003960008181610265015261067301526000818161028c01526108de0152600061020101526114506000f3fe608060405234801561001057600080fd5b50600436106101775760003560e01c806340c10f19116100d857806395d89b411161008c578063d505accf11610066578063d505accf14610368578063dd62ed3e1461037b578063f2fde38b146103a657600080fd5b806395d89b411461033a578063a457c2d714610342578063a9059cbb1461035557600080fd5b806379cc6790116100bd57806379cc6790146102f45780637ecebe00146103075780638da5cb5b1461032757600080fd5b806340c10f19146102c157806370a08231146102d457600080fd5b8063313ce5671161012f578063355274ea11610114578063355274ea146102605780633644e5151461028757806339509351146102ae57600080fd5b8063313ce567146101fc57806331eecaf41461023557600080fd5b8063095ea7b311610160578063095ea7b3146101af57806318160ddd146101d257806323b872dd146101e957600080fd5b806306fdde031461017c57806308a1eee11461019a575b600080fd5b6101846103b9565b6040516101919190610e5d565b60405180910390f35b6101ad6101a8366004610e90565b610447565b005b6101c26101bd366004610ec5565b6104a8565b6040519015158152602001610191565b6101db60025481565b604051908152602001610191565b6101c26101f7366004610eef565b6104be565b6102237f000000000000000000000000000000000000000000000000000000000000000081565b60405160ff9091168152602001610191565b610248610243366004610e90565b610515565b6040516001600160a01b039091168152602001610191565b6101db7f000000000000000000000000000000000000000000000000000000000000000081565b6101db7f000000000000000000000000000000000000000000000000000000000000000081565b6101c26102bc366004610ec5565b61060f565b6101ad6102cf366004610ec5565b610646565b6101db6102e2366004610f2b565b60006020819052908152604090205481565b6101ad610302366004610ec5565b6106e7565b6101db610315366004610f2b565b60056020526000908152604090205481565b600654610248906001600160a01b031681565b610184610758565b6101c2610350366004610ec5565b610765565b6101c2610363366004610ec5565b61079c565b6101ad610376366004610f4d565b6107a9565b6101db610389366004610fc0565b600160209081526000928352604080842090915290825290205481565b6101ad6103b4366004610f2b565b610a6c565b600380546103c690610ff3565b80601f01602080910402602001604051908101604052809291908181526020018280546103f290610ff3565b801561043f5780601f106104145761010080835404028352916020019161043f565b820191906000526020600020905b81548152906001019060200180831161042257829003601f168201915b505050505081565b6006546001600160a01b03163314610472576040516330cd747160e01b815260040160405180910390fd5b600061047d82610515565b6001600160a01b0381166000908152602081905260409020549091506104a4908290610b4b565b5050565b60006104b5338484610bfe565b50600192915050565b6001600160a01b038316600090815260016020908152604080832033845290915281205460001981146104ff576104ff85336104fa8685611044565b610bfe565b61050a858585610c9b565b506001949350505050565b6006546040516000917fff00000000000000000000000000000000000000000000000000000000000000916001600160a01b0390911690849061055a60208201610e20565b601f1982820381018352601f90910116604081905261057c919060200161105b565b604051602081830303815290604052805190602001206040516020016105f194939291907fff0000000000000000000000000000000000000000000000000000000000000094909416845260609290921b6bffffffffffffffffffffffff191660018401526015830152603582015260550190565b60408051601f19818403018152919052805160209091012092915050565b3360008181526001602090815260408083206001600160a01b038716845290915281205490916104b59185906104fa908690611077565b6006546001600160a01b03163314610671576040516330cd747160e01b815260040160405180910390fd5b7f000000000000000000000000000000000000000000000000000000000000000061069c8383610d77565b806106a657505050565b8060025411156106e2576040517fa4875a4900000000000000000000000000000000000000000000000000000000815260040160405180910390fd5b505050565b6006546001600160a01b03163314610712576040516330cd747160e01b815260040160405180910390fd5b6001600160a01b0382166000908152600160209081526040808320338452909152902054600019811461074e5761074e83336104fa8585611044565b6106e28383610b4b565b600480546103c690610ff3565b3360008181526001602090815260408083206001600160a01b038716845290915281205490916104b59185906104fa908690611044565b60006104b5338484610c9b565b834211156107e3576040517f1a15a3cc00000000000000000000000000000000000000000000000000000000815260040160405180910390fd5b7f7fffffffffffffffffffffffffffffff5d576e7357a4501ddfe92f46681b20a081111561083d576040517f40c1e74800000000000000000000000000000000000000000000000000000000815260040160405180910390fd5b8260ff16601b1415801561085557508260ff16601c14155b1561088c576040517f119bce3900000000000000000000000000000000000000000000000000000000815260040160405180910390fd5b604080518082018252600281527f19010000000000000000000000000000000000000000000000000000000000006020808301919091526001600160a01b038a166000908152600590915291822080547f0000000000000000000000000000000000000000000000000000000000000000917f6e71edae12b1b97f4d1f60370fef10105fa2faae0126114a169c64845d6126c9918c918c918c91886109308361108f565b909155506040805160208101969096526001600160a01b0394851690860152929091166060840152608083015260a082015260c0810188905260e00160405160208183030381529060405280519060200120604051602001610994939291906110aa565b60408051601f198184030181528282528051602091820120600080855291840180845281905260ff88169284019290925260608301869052608083018590529092509060019060a0016020604051602081039080840390855afa1580156109ff573d6000803e3d6000fd5b505050602060405103519050886001600160a01b0316816001600160a01b031614610a56576040517f8baa579f00000000000000000000000000000000000000000000000000000000815260040160405180910390fd5b610a61898989610bfe565b505050505050505050565b6006546001600160a01b03163314610a97576040516330cd747160e01b815260040160405180910390fd5b6001600160a01b038116610ad7576040517f49e27cff00000000000000000000000000000000000000000000000000000000815260040160405180910390fd5b6006546040516001600160a01b038084169216907f8be0079c531659141344cd1fd0a4f28419497f9722a3daafe3b4186f6b6457e090600090a3600680547fffffffffffffffffffffffff0000000000000000000000000000000000000000166001600160a01b0392909216919091179055565b6001600160a01b038216610b7257604051630da30f6560e31b815260040160405180910390fd5b6001600160a01b03821660009081526020819052604081208054839290610b9a908490611044565b925050819055508060026000828254610bb39190611044565b90915550506040518181526000906001600160a01b038416907fddf252ad1be2c89b69c2b068fc378daa952ba7f163c4a11628f55a4df523b3ef906020015b60405180910390a35050565b6001600160a01b0383161580610c1b57506001600160a01b038216155b15610c3957604051630da30f6560e31b815260040160405180910390fd5b6001600160a01b0383811660008181526001602090815260408083209487168084529482529182902085905590518481527f8c5be1e5ebec7d5bd14f71427d1e84f3dd0314c0f7b2291e5b200ac8c7c3b92591015b60405180910390a3505050565b6001600160a01b0383161580610cb857506001600160a01b038216155b15610cd657604051630da30f6560e31b815260040160405180910390fd5b6001600160a01b03831660009081526020819052604081208054839290610cfe908490611044565b90915550506001600160a01b03821660009081526020819052604081208054839290610d2b908490611077565b92505081905550816001600160a01b0316836001600160a01b03167fddf252ad1be2c89b69c2b068fc378daa952ba7f163c4a11628f55a4df523b3ef83604051610c8e91815260200190565b6001600160a01b038216610d9e57604051630da30f6560e31b815260040160405180910390fd5b8060026000828254610db09190611077565b90915550506001600160a01b03821660009081526020819052604081208054839290610ddd908490611077565b90915550506040518181526001600160a01b038316906000907fddf252ad1be2c89b69c2b068fc378daa952ba7f163c4a11628f55a4df523b3ef90602001610bf2565b610349806110d283390190565b60005b83811015610e48578181015183820152602001610e30565b83811115610e57576000848401525b50505050565b6020815260008251806020840152610e7c816040850160208701610e2d565b601f01601f19169190910160400192915050565b600060208284031215610ea257600080fd5b5035919050565b80356001600160a01b0381168114610ec057600080fd5b919050565b60008060408385031215610ed857600080fd5b610ee183610ea9565b946020939093013593505050565b600080600060608486031215610f0457600080fd5b610f0d84610ea9565b9250610f1b60208501610ea9565b9150604084013590509250925092565b600060208284031215610f3d57600080fd5b610f4682610ea9565b9392505050565b600080600080600080600060e0888a031215610f6857600080fd5b610f7188610ea9565b9650610f7f60208901610ea9565b95506040880135945060608801359350608088013560ff81168114610fa357600080fd5b9699959850939692959460a0840135945060c09093013592915050565b60008060408385031215610fd357600080fd5b610fdc83610ea9565b9150610fea60208401610ea9565b90509250929050565b600181811c9082168061100757607f821691505b6020821081141561102857634e487b7160e01b600052602260045260246000fd5b50919050565b634e487b7160e01b600052601160045260246000fd5b6000828210156110565761105661102e565b500390565b6000825161106d818460208701610e2d565b9190910192915050565b6000821982111561108a5761108a61102e565b500190565b60006000198214156110a3576110a361102e565b5060010190565b600084516110bc818460208901610e2d565b9190910192835250602082015260400191905056fe6080604052600160005534801561001557600080fd5b50610324806100256000396000f3fe608060405234801561001057600080fd5b50600436106100355760003560e01c8062f55d9d1461003a5780631cff79cd1461004f575b600080fd5b61004d6100483660046101da565b610079565b005b61006261005d3660046101fc565b6100bb565b60405161007092919061027f565b60405180910390f35b6002600054141561009d5760405163caa30f5560e01b815260040160405180910390fd5b600260005573ffffffffffffffffffffffffffffffffffffffff8116ff5b60006060600260005414156100e35760405163caa30f5560e01b815260040160405180910390fd5b600260005573ffffffffffffffffffffffffffffffffffffffff85163b610136576040517f6f7c43f100000000000000000000000000000000000000000000000000000000815260040160405180910390fd5b8473ffffffffffffffffffffffffffffffffffffffff16848460405161015d9291906102de565b6000604051808303816000865af19150503d806000811461019a576040519150601f19603f3d011682016040523d82523d6000602084013e61019f565b606091505b50600160005590969095509350505050565b803573ffffffffffffffffffffffffffffffffffffffff811681146101d557600080fd5b919050565b6000602082840312156101ec57600080fd5b6101f5826101b1565b9392505050565b60008060006040848603121561021157600080fd5b61021a846101b1565b9250602084013567ffffffffffffffff8082111561023757600080fd5b818601915086601f83011261024b57600080fd5b81358181111561025a57600080fd5b87602082850101111561026c57600080fd5b6020830194508093505050509250925092565b821515815260006020604081840152835180604085015260005b818110156102b557858101830151858201606001528201610299565b818111156102c7576000606083870101525b50601f01601f191692909201606001949350505050565b818382376000910190815291905056fea2646970667358221220dfb702492c35c6a884ac11997b483e3fee4ff8145c7abb0799d2a2fc8674c39364736f6c63430008090033a26469706673582212200c91fd2c0c0716a838a82654afcb7fba074539452c7c6cd867f9add7ce181d4a64736f6c63430008090033a26469706673582212209709b9bfb2c0750d8e6154ca34979655c4b150ba5d3caf83e10ae5cddcbcdf4e64736f6c63430008090033",
  "linkReferences": {},
  "deployedLinkReferences": {}
}